{
  "_format": "hh-sol-artifact-1",
  "contractName": "FFWClubNFT",
  "sourceName": "contracts/FFWClub-NFT.sol",
  "abi": [
    {
      "inputs": [
        {
          "internalType": "address",
          "name": "_proxyRegistryAddress",
          "type": "address"
        },
        {
          "internalType": "uint64",
          "name": "maxSupply",
          "type": "uint64"
        },
        {
          "internalType": "address",
          "name": "_WETH",
          "type": "address"
        }
      ],
      "stateMutability": "nonpayable",
      "type": "constructor"
    },
    {
      "inputs": [],
      "name": "ApprovalCallerNotOwnerNorApproved",
      "type": "error"
    },
    {
      "inputs": [],
      "name": "ApprovalQueryForNonexistentToken",
      "type": "error"
    },
    {
      "inputs": [],
      "name": "ApprovalToCurrentOwner",
      "type": "error"
    },
    {
      "inputs": [],
      "name": "ApproveToCaller",
      "type": "error"
    },
    {
      "inputs": [],
      "name": "BalanceQueryForZeroAddress",
      "type": "error"
    },
    {
      "inputs": [],
      "name": "MintToZeroAddress",
      "type": "error"
    },
    {
      "inputs": [],
      "name": "MintZeroQuantity",
      "type": "error"
    },
    {
      "inputs": [],
      "name": "OwnerQueryForNonexistentToken",
      "type": "error"
    },
    {
      "inputs": [],
      "name": "TransferCallerNotOwnerNorApproved",
      "type": "error"
    },
    {
      "inputs": [],
      "name": "TransferFromIncorrectOwner",
      "type": "error"
    },
    {
      "inputs": [],
      "name": "TransferToNonERC721ReceiverImplementer",
      "type": "error"
    },
    {
      "inputs": [],
      "name": "TransferToZeroAddress",
      "type": "error"
    },
    {
      "inputs": [],
      "name": "URIQueryForNonexistentToken",
      "type": "error"
    },
    {
      "anonymous": false,
      "inputs": [
        {
          "indexed": true,
          "internalType": "address",
          "name": "owner",
          "type": "address"
        },
        {
          "indexed": true,
          "internalType": "address",
          "name": "approved",
          "type": "address"
        },
        {
          "indexed": true,
          "internalType": "uint256",
          "name": "tokenId",
          "type": "uint256"
        }
      ],
      "name": "Approval",
      "type": "event"
    },
    {
      "anonymous": false,
      "inputs": [
        {
          "indexed": true,
          "internalType": "address",
          "name": "owner",
          "type": "address"
        },
        {
          "indexed": true,
          "internalType": "address",
          "name": "operator",
          "type": "address"
        },
        {
          "indexed": false,
          "internalType": "bool",
          "name": "approved",
          "type": "bool"
        }
      ],
      "name": "ApprovalForAll",
      "type": "event"
    },
    {
      "anonymous": false,
      "inputs": [
        {
          "indexed": false,
          "internalType": "address",
          "name": "userAddress",
          "type": "address"
        },
        {
          "indexed": false,
          "internalType": "address payable",
          "name": "relayerAddress",
          "type": "address"
        },
        {
          "indexed": false,
          "internalType": "bytes",
          "name": "functionSignature",
          "type": "bytes"
        }
      ],
      "name": "MetaTransactionExecuted",
      "type": "event"
    },
    {
      "anonymous": false,
      "inputs": [
        {
          "indexed": true,
          "internalType": "address",
          "name": "previousOwner",
          "type": "address"
        },
        {
          "indexed": true,
          "internalType": "address",
          "name": "newOwner",
          "type": "address"
        }
      ],
      "name": "OwnershipTransferred",
      "type": "event"
    },
    {
      "anonymous": false,
      "inputs": [
        {
          "indexed": true,
          "internalType": "address",
          "name": "from",
          "type": "address"
        },
        {
          "indexed": true,
          "internalType": "address",
          "name": "to",
          "type": "address"
        },
        {
          "indexed": true,
          "internalType": "uint256",
          "name": "tokenId",
          "type": "uint256"
        }
      ],
      "name": "Transfer",
      "type": "event"
    },
    {
      "inputs": [],
      "name": "ERC712_VERSION",
      "outputs": [
        {
          "internalType": "string",
          "name": "",
          "type": "string"
        }
      ],
      "stateMutability": "view",
      "type": "function"
    },
    {
      "inputs": [],
      "name": "MAX_PER_AIRDROP_ADDRESS",
      "outputs": [
        {
          "internalType": "uint16",
          "name": "",
          "type": "uint16"
        }
      ],
      "stateMutability": "view",
      "type": "function"
    },
    {
      "inputs": [],
      "name": "MAX_PER_EARLY_ADDRESS",
      "outputs": [
        {
          "internalType": "uint16",
          "name": "",
          "type": "uint16"
        }
      ],
      "stateMutability": "view",
      "type": "function"
    },
    {
      "inputs": [],
      "name": "MAX_PER_PRESALE_ADDRESS",
      "outputs": [
        {
          "internalType": "uint16",
          "name": "",
          "type": "uint16"
        }
      ],
      "stateMutability": "view",
      "type": "function"
    },
    {
      "inputs": [],
      "name": "MAX_PER_PUBLICSALE_ADDRESS",
      "outputs": [
        {
          "internalType": "uint16",
          "name": "",
          "type": "uint16"
        }
      ],
      "stateMutability": "view",
      "type": "function"
    },
    {
      "inputs": [],
      "name": "MAX_PER_VIP_ADDRESS",
      "outputs": [
        {
          "internalType": "uint16",
          "name": "",
          "type": "uint16"
        }
      ],
      "stateMutability": "view",
      "type": "function"
    },
    {
      "inputs": [],
      "name": "MAX_SUPPLY",
      "outputs": [
        {
          "internalType": "uint64",
          "name": "",
          "type": "uint64"
        }
      ],
      "stateMutability": "view",
      "type": "function"
    },
    {
      "inputs": [],
      "name": "TOTAL_AIRDROP_RESERVE",
      "outputs": [
        {
          "internalType": "uint64",
          "name": "",
          "type": "uint64"
        }
      ],
      "stateMutability": "view",
      "type": "function"
    },
    {
      "inputs": [],
      "name": "TOTAL_EARLY_RESERVE",
      "outputs": [
        {
          "internalType": "uint64",
          "name": "",
          "type": "uint64"
        }
      ],
      "stateMutability": "view",
      "type": "function"
    },
    {
      "inputs": [],
      "name": "TOTAL_PRESALE_RESERVE",
      "outputs": [
        {
          "internalType": "uint64",
          "name": "",
          "type": "uint64"
        }
      ],
      "stateMutability": "view",
      "type": "function"
    },
    {
      "inputs": [],
      "name": "TOTAL_TEAM_RESERVE",
      "outputs": [
        {
          "internalType": "uint64",
          "name": "",
          "type": "uint64"
        }
      ],
      "stateMutability": "view",
      "type": "function"
    },
    {
      "inputs": [],
      "name": "TOTAL_VIP_RESERVE",
      "outputs": [
        {
          "internalType": "uint64",
          "name": "",
          "type": "uint64"
        }
      ],
      "stateMutability": "view",
      "type": "function"
    },
    {
      "inputs": [],
      "name": "VIPAccessMerkleRoot",
      "outputs": [
        {
          "internalType": "bytes32",
          "name": "",
          "type": "bytes32"
        }
      ],
      "stateMutability": "view",
      "type": "function"
    },
    {
      "inputs": [],
      "name": "WETH",
      "outputs": [
        {
          "internalType": "contract IERC20",
          "name": "",
          "type": "address"
        }
      ],
      "stateMutability": "view",
      "type": "function"
    },
    {
      "inputs": [
        {
          "internalType": "address",
          "name": "",
          "type": "address"
        }
      ],
      "name": "airdropCounter",
      "outputs": [
        {
          "internalType": "uint64",
          "name": "",
          "type": "uint64"
        }
      ],
      "stateMutability": "view",
      "type": "function"
    },
    {
      "inputs": [],
      "name": "airdropMerkleRoot",
      "outputs": [
        {
          "internalType": "bytes32",
          "name": "",
          "type": "bytes32"
        }
      ],
      "stateMutability": "view",
      "type": "function"
    },
    {
      "inputs": [
        {
          "internalType": "address",
          "name": "to",
          "type": "address"
        },
        {
          "internalType": "uint256",
          "name": "tokenId",
          "type": "uint256"
        }
      ],
      "name": "approve",
      "outputs": [],
      "stateMutability": "nonpayable",
      "type": "function"
    },
    {
      "inputs": [
        {
          "internalType": "address",
          "name": "owner",
          "type": "address"
        }
      ],
      "name": "balanceOf",
      "outputs": [
        {
          "internalType": "uint256",
          "name": "",
          "type": "uint256"
        }
      ],
      "stateMutability": "view",
      "type": "function"
    },
    {
      "inputs": [],
      "name": "baseTokenURI",
      "outputs": [
        {
          "internalType": "string",
          "name": "",
          "type": "string"
        }
      ],
      "stateMutability": "view",
      "type": "function"
    },
    {
      "inputs": [],
      "name": "baseURI",
      "outputs": [
        {
          "internalType": "string",
          "name": "",
          "type": "string"
        }
      ],
      "stateMutability": "view",
      "type": "function"
    },
    {
      "inputs": [
        {
          "internalType": "uint256",
          "name": "tokenId",
          "type": "uint256"
        }
      ],
      "name": "burn",
      "outputs": [],
      "stateMutability": "nonpayable",
      "type": "function"
    },
    {
      "inputs": [
        {
          "internalType": "address[]",
          "name": "payees_",
          "type": "address[]"
        },
        {
          "internalType": "uint256[]",
          "name": "amounts_",
          "type": "uint256[]"
        }
      ],
      "name": "disbursePayments",
      "outputs": [],
      "stateMutability": "nonpayable",
      "type": "function"
    },
    {
      "inputs": [
        {
          "internalType": "address[]",
          "name": "payees_",
          "type": "address[]"
        },
        {
          "internalType": "uint256[]",
          "name": "amounts_",
          "type": "uint256[]"
        }
      ],
      "name": "disburseWETHPayments",
      "outputs": [],
      "stateMutability": "nonpayable",
      "type": "function"
    },
    {
      "inputs": [],
      "name": "earlyAccessMerkleRoot",
      "outputs": [
        {
          "internalType": "bytes32",
          "name": "",
          "type": "bytes32"
        }
      ],
      "stateMutability": "view",
      "type": "function"
    },
    {
      "inputs": [
        {
          "internalType": "address",
          "name": "",
          "type": "address"
        }
      ],
      "name": "earlyCounter",
      "outputs": [
        {
          "internalType": "uint64",
          "name": "",
          "type": "uint64"
        }
      ],
      "stateMutability": "view",
      "type": "function"
    },
    {
      "inputs": [
        {
          "internalType": "address",
          "name": "userAddress",
          "type": "address"
        },
        {
          "internalType": "bytes",
          "name": "functionSignature",
          "type": "bytes"
        },
        {
          "internalType": "bytes32",
          "name": "sigR",
          "type": "bytes32"
        },
        {
          "internalType": "bytes32",
          "name": "sigS",
          "type": "bytes32"
        },
        {
          "internalType": "uint8",
          "name": "sigV",
          "type": "uint8"
        }
      ],
      "name": "executeMetaTransaction",
      "outputs": [
        {
          "internalType": "bytes",
          "name": "",
          "type": "bytes"
        }
      ],
      "stateMutability": "payable",
      "type": "function"
    },
    {
      "inputs": [],
      "name": "freezeMetadata",
      "outputs": [],
      "stateMutability": "nonpayable",
      "type": "function"
    },
    {
      "inputs": [],
      "name": "freezeSettings",
      "outputs": [],
      "stateMutability": "nonpayable",
      "type": "function"
    },
    {
      "inputs": [
        {
          "internalType": "uint256",
          "name": "tokenId",
          "type": "uint256"
        }
      ],
      "name": "getApproved",
      "outputs": [
        {
          "internalType": "address",
          "name": "",
          "type": "address"
        }
      ],
      "stateMutability": "view",
      "type": "function"
    },
    {
      "inputs": [],
      "name": "getChainId",
      "outputs": [
        {
          "internalType": "uint256",
          "name": "",
          "type": "uint256"
        }
      ],
      "stateMutability": "view",
      "type": "function"
    },
    {
      "inputs": [],
      "name": "getDomainSeperator",
      "outputs": [
        {
          "internalType": "bytes32",
          "name": "",
          "type": "bytes32"
        }
      ],
      "stateMutability": "view",
      "type": "function"
    },
    {
      "inputs": [
        {
          "internalType": "address",
          "name": "user",
          "type": "address"
        }
      ],
      "name": "getNonce",
      "outputs": [
        {
          "internalType": "uint256",
          "name": "nonce",
          "type": "uint256"
        }
      ],
      "stateMutability": "view",
      "type": "function"
    },
    {
      "inputs": [
        {
          "internalType": "address",
          "name": "owner",
          "type": "address"
        },
        {
          "internalType": "address",
          "name": "operator",
          "type": "address"
        }
      ],
      "name": "isApprovedForAll",
      "outputs": [
        {
          "internalType": "bool",
          "name": "",
          "type": "bool"
        }
      ],
      "stateMutability": "view",
      "type": "function"
    },
    {
      "inputs": [],
      "name": "metadataIsFrozen",
      "outputs": [
        {
          "internalType": "bool",
          "name": "",
          "type": "bool"
        }
      ],
      "stateMutability": "view",
      "type": "function"
    },
    {
      "inputs": [
        {
          "internalType": "bytes32[]",
          "name": "_merkleProof",
          "type": "bytes32[]"
        },
        {
          "internalType": "uint64",
          "name": "count",
          "type": "uint64"
        }
      ],
      "name": "mintAirdrop",
      "outputs": [],
      "stateMutability": "nonpayable",
      "type": "function"
    },
    {
      "inputs": [
        {
          "internalType": "bytes32[]",
          "name": "_merkleProof",
          "type": "bytes32[]"
        },
        {
          "internalType": "uint64",
          "name": "count",
          "type": "uint64"
        }
      ],
      "name": "mintEarlyAccessSale",
      "outputs": [],
      "stateMutability": "payable",
      "type": "function"
    },
    {
      "inputs": [
        {
          "internalType": "bytes32[]",
          "name": "_merkleProof",
          "type": "bytes32[]"
        },
        {
          "internalType": "uint64",
          "name": "count",
          "type": "uint64"
        }
      ],
      "name": "mintPresale",
      "outputs": [],
      "stateMutability": "payable",
      "type": "function"
    },
    {
      "inputs": [],
      "name": "mintPrice",
      "outputs": [
        {
          "internalType": "uint256",
          "name": "",
          "type": "uint256"
        }
      ],
      "stateMutability": "view",
      "type": "function"
    },
    {
      "inputs": [
        {
          "internalType": "address",
          "name": "_to",
          "type": "address"
        },
        {
          "internalType": "uint64",
          "name": "count",
          "type": "uint64"
        }
      ],
      "name": "mintTo",
      "outputs": [],
      "stateMutability": "payable",
      "type": "function"
    },
    {
      "inputs": [
        {
          "internalType": "uint64[]",
          "name": "counts",
          "type": "uint64[]"
        },
        {
          "internalType": "address[]",
          "name": "toAddresses",
          "type": "address[]"
        }
      ],
      "name": "mintToTeam",
      "outputs": [],
      "stateMutability": "nonpayable",
      "type": "function"
    },
    {
      "inputs": [
        {
          "internalType": "bytes32[]",
          "name": "_merkleProof",
          "type": "bytes32[]"
        },
        {
          "internalType": "uint64",
          "name": "count",
          "type": "uint64"
        }
      ],
      "name": "mintVIPAccessSale",
      "outputs": [],
      "stateMutability": "payable",
      "type": "function"
    },
    {
      "inputs": [],
      "name": "name",
      "outputs": [
        {
          "internalType": "string",
          "name": "",
          "type": "string"
        }
      ],
      "stateMutability": "view",
      "type": "function"
    },
    {
      "inputs": [],
      "name": "owner",
      "outputs": [
        {
          "internalType": "address",
          "name": "",
          "type": "address"
        }
      ],
      "stateMutability": "view",
      "type": "function"
    },
    {
      "inputs": [
        {
          "internalType": "uint256",
          "name": "tokenId",
          "type": "uint256"
        }
      ],
      "name": "ownerOf",
      "outputs": [
        {
          "internalType": "address",
          "name": "",
          "type": "address"
        }
      ],
      "stateMutability": "view",
      "type": "function"
    },
    {
      "inputs": [],
      "name": "phase",
      "outputs": [
        {
          "internalType": "enum FFWClubNFT.SalePhase",
          "name": "",
          "type": "uint8"
        }
      ],
      "stateMutability": "view",
      "type": "function"
    },
    {
      "inputs": [
        {
          "internalType": "address",
          "name": "",
          "type": "address"
        }
      ],
      "name": "presaleCounter",
      "outputs": [
        {
          "internalType": "uint64",
          "name": "",
          "type": "uint64"
        }
      ],
      "stateMutability": "view",
      "type": "function"
    },
    {
      "inputs": [
        {
          "internalType": "address",
          "name": "",
          "type": "address"
        }
      ],
      "name": "publicsaleCounter",
      "outputs": [
        {
          "internalType": "uint64",
          "name": "",
          "type": "uint64"
        }
      ],
      "stateMutability": "view",
      "type": "function"
    },
    {
      "inputs": [
        {
          "internalType": "uint64",
          "name": "newMaxSupply",
          "type": "uint64"
        }
      ],
      "name": "reduceSupply",
      "outputs": [],
      "stateMutability": "nonpayable",
      "type": "function"
    },
    {
      "inputs": [],
      "name": "renounceOwnership",
      "outputs": [],
      "stateMutability": "nonpayable",
      "type": "function"
    },
    {
      "inputs": [],
      "name": "revealNFTs",
      "outputs": [],
      "stateMutability": "nonpayable",
      "type": "function"
    },
    {
      "inputs": [
        {
          "internalType": "address",
          "name": "from",
          "type": "address"
        },
        {
          "internalType": "address",
          "name": "to",
          "type": "address"
        },
        {
          "internalType": "uint256",
          "name": "tokenId",
          "type": "uint256"
        }
      ],
      "name": "safeTransferFrom",
      "outputs": [],
      "stateMutability": "nonpayable",
      "type": "function"
    },
    {
      "inputs": [
        {
          "internalType": "address",
          "name": "from",
          "type": "address"
        },
        {
          "internalType": "address",
          "name": "to",
          "type": "address"
        },
        {
          "internalType": "uint256",
          "name": "tokenId",
          "type": "uint256"
        },
        {
          "internalType": "bytes",
          "name": "_data",
          "type": "bytes"
        }
      ],
      "name": "safeTransferFrom",
      "outputs": [],
      "stateMutability": "nonpayable",
      "type": "function"
    },
    {
      "inputs": [
        {
          "internalType": "bytes32",
          "name": "_root",
          "type": "bytes32"
        }
      ],
      "name": "setAirdropMerkleRoot",
      "outputs": [],
      "stateMutability": "nonpayable",
      "type": "function"
    },
    {
      "inputs": [
        {
          "internalType": "address",
          "name": "operator",
          "type": "address"
        },
        {
          "internalType": "bool",
          "name": "approved",
          "type": "bool"
        }
      ],
      "name": "setApprovalForAll",
      "outputs": [],
      "stateMutability": "nonpayable",
      "type": "function"
    },
    {
      "inputs": [
        {
          "internalType": "string",
          "name": "__baseURI",
          "type": "string"
        }
      ],
      "name": "setBaseURI",
      "outputs": [],
      "stateMutability": "nonpayable",
      "type": "function"
    },
    {
      "inputs": [
        {
          "internalType": "bytes32",
          "name": "_root",
          "type": "bytes32"
        }
      ],
      "name": "setEarlyAccessMerkleRoot",
      "outputs": [],
      "stateMutability": "nonpayable",
      "type": "function"
    },
    {
      "inputs": [
        {
          "internalType": "uint16",
          "name": "airdropLimit",
          "type": "uint16"
        },
        {
          "internalType": "uint16",
          "name": "earlyAccessLimit",
          "type": "uint16"
        },
        {
          "internalType": "uint16",
          "name": "vipAccessLimit",
          "type": "uint16"
        },
        {
          "internalType": "uint16",
          "name": "preSaleLimit",
          "type": "uint16"
        },
        {
          "internalType": "uint16",
          "name": "publicSaleLimit",
          "type": "uint16"
        },
        {
          "internalType": "uint64",
          "name": "totalTeamReserve",
          "type": "uint64"
        },
        {
          "internalType": "uint64",
          "name": "totalAirdropReserve",
          "type": "uint64"
        },
        {
          "internalType": "uint64",
          "name": "earlyAccessReserve",
          "type": "uint64"
        },
        {
          "internalType": "uint64",
          "name": "vipAccessReserve",
          "type": "uint64"
        },
        {
          "internalType": "uint64",
          "name": "totalPresaleReserve",
          "type": "uint64"
        }
      ],
      "name": "setLimits",
      "outputs": [],
      "stateMutability": "nonpayable",
      "type": "function"
    },
    {
      "inputs": [
        {
          "internalType": "bool",
          "name": "isEnabled",
          "type": "bool"
        }
      ],
      "name": "setMerkleMintVerification",
      "outputs": [],
      "stateMutability": "nonpayable",
      "type": "function"
    },
    {
      "inputs": [
        {
          "internalType": "bytes32",
          "name": "_airdropRoot",
          "type": "bytes32"
        },
        {
          "internalType": "bytes32",
          "name": "_earlyAccessRoot",
          "type": "bytes32"
        },
        {
          "internalType": "bytes32",
          "name": "_vipAccessRoot",
          "type": "bytes32"
        },
        {
          "internalType": "bytes32",
          "name": "_whitelistRoot",
          "type": "bytes32"
        }
      ],
      "name": "setMerkleRoots",
      "outputs": [],
      "stateMutability": "nonpayable",
      "type": "function"
    },
    {
      "inputs": [
        {
          "internalType": "bool",
          "name": "isPaused",
          "type": "bool"
        }
      ],
      "name": "setPaused",
      "outputs": [],
      "stateMutability": "nonpayable",
      "type": "function"
    },
    {
      "inputs": [
        {
          "internalType": "enum FFWClubNFT.SalePhase",
          "name": "_phase",
          "type": "uint8"
        },
        {
          "internalType": "uint256",
          "name": "_mintPrice",
          "type": "uint256"
        }
      ],
      "name": "setPhaseAndMintPrice",
      "outputs": [],
      "stateMutability": "nonpayable",
      "type": "function"
    },
    {
      "inputs": [
        {
          "internalType": "bytes32",
          "name": "_root",
          "type": "bytes32"
        }
      ],
      "name": "setVIPAccessMerkleRoot",
      "outputs": [],
      "stateMutability": "nonpayable",
      "type": "function"
    },
    {
      "inputs": [
        {
          "internalType": "bytes32",
          "name": "_root",
          "type": "bytes32"
        }
      ],
      "name": "setWhitelistMerkleRoot",
      "outputs": [],
      "stateMutability": "nonpayable",
      "type": "function"
    },
    {
      "inputs": [],
      "name": "settingsIsFrozen",
      "outputs": [
        {
          "internalType": "bool",
          "name": "",
          "type": "bool"
        }
      ],
      "stateMutability": "view",
      "type": "function"
    },
    {
      "inputs": [
        {
          "internalType": "bytes4",
          "name": "interfaceId",
          "type": "bytes4"
        }
      ],
      "name": "supportsInterface",
      "outputs": [
        {
          "internalType": "bool",
          "name": "",
          "type": "bool"
        }
      ],
      "stateMutability": "view",
      "type": "function"
    },
    {
      "inputs": [],
      "name": "symbol",
      "outputs": [
        {
          "internalType": "string",
          "name": "",
          "type": "string"
        }
      ],
      "stateMutability": "view",
      "type": "function"
    },
    {
      "inputs": [
        {
          "internalType": "address",
          "name": "",
          "type": "address"
        }
      ],
      "name": "teamCounter",
      "outputs": [
        {
          "internalType": "uint64",
          "name": "",
          "type": "uint64"
        }
      ],
      "stateMutability": "view",
      "type": "function"
    },
    {
      "inputs": [
        {
          "internalType": "uint256",
          "name": "tokenId",
          "type": "uint256"
        }
      ],
      "name": "tokenURI",
      "outputs": [
        {
          "internalType": "string",
          "name": "",
          "type": "string"
        }
      ],
      "stateMutability": "view",
      "type": "function"
    },
    {
      "inputs": [],
      "name": "totalAirdropCounter",
      "outputs": [
        {
          "internalType": "uint64",
          "name": "",
          "type": "uint64"
        }
      ],
      "stateMutability": "view",
      "type": "function"
    },
    {
      "inputs": [],
      "name": "totalEarlyCounter",
      "outputs": [
        {
          "internalType": "uint64",
          "name": "",
          "type": "uint64"
        }
      ],
      "stateMutability": "view",
      "type": "function"
    },
    {
      "inputs": [],
      "name": "totalPresaleCounter",
      "outputs": [
        {
          "internalType": "uint64",
          "name": "",
          "type": "uint64"
        }
      ],
      "stateMutability": "view",
      "type": "function"
    },
    {
      "inputs": [],
      "name": "totalSupply",
      "outputs": [
        {
          "internalType": "uint256",
          "name": "",
          "type": "uint256"
        }
      ],
      "stateMutability": "view",
      "type": "function"
    },
    {
      "inputs": [],
      "name": "totalTeamCounter",
      "outputs": [
        {
          "internalType": "uint64",
          "name": "",
          "type": "uint64"
        }
      ],
      "stateMutability": "view",
      "type": "function"
    },
    {
      "inputs": [],
      "name": "totalVIPCounter",
      "outputs": [
        {
          "internalType": "uint64",
          "name": "",
          "type": "uint64"
        }
      ],
      "stateMutability": "view",
      "type": "function"
    },
    {
      "inputs": [
        {
          "internalType": "address",
          "name": "from",
          "type": "address"
        },
        {
          "internalType": "address",
          "name": "to",
          "type": "address"
        },
        {
          "internalType": "uint256",
          "name": "tokenId",
          "type": "uint256"
        }
      ],
      "name": "transferFrom",
      "outputs": [],
      "stateMutability": "nonpayable",
      "type": "function"
    },
    {
      "inputs": [
        {
          "internalType": "address",
          "name": "newOwner",
          "type": "address"
        }
      ],
      "name": "transferOwnership",
      "outputs": [],
      "stateMutability": "nonpayable",
      "type": "function"
    },
    {
      "inputs": [
        {
          "internalType": "address",
          "name": "",
          "type": "address"
        }
      ],
      "name": "vipCounter",
      "outputs": [
        {
          "internalType": "uint64",
          "name": "",
          "type": "uint64"
        }
      ],
      "stateMutability": "view",
      "type": "function"
    },
    {
      "inputs": [],
      "name": "whitelistMerkleRoot",
      "outputs": [
        {
          "internalType": "bytes32",
          "name": "",
          "type": "bytes32"
        }
      ],
      "stateMutability": "view",
      "type": "function"
    }
  ],
  "bytecode": "0x6008805460ff19169055600f80546001600160a81b031916737ceb23fd6bc0add59e62ac25578270cff1b9f619179055601b80547907d000000000000000c800000000000000c800000000000000006001600160401b03909116179055601c80547901f4006400140014001400000000000007d000000000000007d06001600160d01b0319909116179055601d80546001600160401b031916612710179055668e1bc9bf040000601e5560a0604081905260006080819052620000c591601f9162000411565b506020805464ffffffffff191662010000179055348015620000e657600080fd5b5060405162005616380380620056168339810160408190526200010991620004d4565b6040518060400160405280601781526020017f467572727920466f7820576f6f647369646520436c75620000000000000000008152506040518060400160405280600781526020016623232ba1b63ab160c91b81525084828281600290805190602001906200017a92919062000411565b5080516200019090600390602084019062000411565b50506000805550620001ab620001a562000235565b62000251565b600e80546001600160a01b0319166001600160a01b038316179055620001de600d620002a3602090811b62002e6c17901c565b620001e983620002ac565b5050601d80546001600160401b0319166001600160401b039490941693909317909255600f80546001600160a01b0319166001600160a01b039290921691909117905550620005679050565b60006200024c6200031060201b62002e751760201c565b905090565b600b80546001600160a01b038381166001600160a01b0319831681179093556040519116919082907f8be0079c531659141344cd1fd0a4f28419497f9722a3daafe3b4186f6b6457e090600090a35050565b80546001019055565b60085460ff1615620002f55760405162461bcd60e51b815260206004820152600e60248201526d185b1c9958591e481a5b9a5d195960921b604482015260640160405180910390fd5b62000300816200036f565b506008805460ff19166001179055565b6000333014156200036957600080368080601f0160208091040260200160405190810160405280939291908181526020018383808284376000920191909152505050503601516001600160a01b031691506200036c9050565b50335b90565b6040518060800160405280604f8152602001620055c7604f9139805160209182012082519282019290922060408051808201825260018152603160f81b90840152805180840194909452838101919091527fc89efdaa54c0f20c7adf612882df0950f5a951637e0307cdcb4c672f298b8bc660608401523060808401524660a0808501919091528151808503909101815260c090930190528151910120600955565b8280546200041f906200052a565b90600052602060002090601f0160209004810192826200044357600085556200048e565b82601f106200045e57805160ff19168380011785556200048e565b828001600101855582156200048e579182015b828111156200048e57825182559160200191906001019062000471565b506200049c929150620004a0565b5090565b5b808211156200049c5760008155600101620004a1565b80516001600160a01b0381168114620004cf57600080fd5b919050565b600080600060608486031215620004e9578283fd5b620004f484620004b7565b60208501519093506001600160401b038116811462000511578283fd5b91506200052160408501620004b7565b90509250925092565b600181811c908216806200053f57607f821691505b602082108114156200056157634e487b7160e01b600052602260045260246000fd5b50919050565b61505080620005776000396000f3fe60806040526004361061045d5760003560e01c806377fc393e1161023f578063c1c4f81611610139578063d637b5fd116100b6578063f6e99b621161007a578063f6e99b6214610de7578063f80fe34514610e07578063f8a5ed4d14610e29578063fb4bcd4f14610e50578063ff47a7c314610e7057600080fd5b8063d637b5fd14610d34578063dc36de5914610d5b578063e80e7d9a14610d71578063e985e9c514610da7578063f2fde38b14610dc757600080fd5b8063ce21b49a116100fd578063ce21b49a14610cb0578063cf880fea14610cd0578063d111515d14610cea578063d3d704cf14610cff578063d547cfb714610d1f57600080fd5b8063c1c4f81614610c08578063c1dd9e5b14610c2f578063c4d0831114610c56578063c5a125e314610c69578063c87b56dd14610c9057600080fd5b8063a5ce30d2116101c7578063b1c9fe6e1161018b578063b1c9fe6e14610b2e578063b88d4fde14610b5c578063bd32fb6614610b7c578063bdcba9ef14610b9c578063c14ec10314610bd257600080fd5b8063a5ce30d214610aaf578063aa98e0c614610ac5578063ad5c464814610adb578063b12fa1f814610afb578063b16945fe14610b1b57600080fd5b80638da5cb5b1161020e5780638da5cb5b14610a275780638e3245f914610a4557806393d756aa14610a6757806395d89b4114610a7a578063a22cb46514610a8f57600080fd5b806377fc393e1461098a57806381a2936a146109aa57806382a19411146109d1578063852e762214610a0757600080fd5b80633533b8e01161035b578063601258d8116102d85780636f8b02421161029c5780636f8b0242146108df57806370a08231146108ff578063715018a61461091f578063724ff8ba14610934578063752e5b8a1461096a57600080fd5b8063601258d81461083c5780636352211e146108725780636588717e146108925780636817c76c146108b45780636c0360eb146108ca57600080fd5b806355f804b31161031f57806355f804b3146107b25780635718ac73146107d25780635a22599d146107f25780635d6013c4146108075780635dc70c711461082757600080fd5b80633533b8e01461071a578063399762811461073057806342842e0e1461075057806342966c68146107705780634e04161e1461079057600080fd5b806318160ddd116103e957806327fc1cf6116103ad57806327fc1cf61461063d5780632d0335ab1461067c5780632fc2e838146106b257806332cb6b0c146106e75780633408e4701461070757600080fd5b806318160ddd146105b257806320379ee5146105d557806320685db2146105ea57806323b872dd1461060a57806324cbac0a1461062a57600080fd5b8063081812fc11610430578063081812fc146104fa578063095ea7b3146105325780630c53c51c146105525780630f7e59701461056557806316c38b3c1461059257600080fd5b806301ffc9a714610462578063046181e214610497578063064e7b4e146104b957806306fdde03146104d8575b600080fd5b34801561046e57600080fd5b5061048261047d3660046149d6565b610e90565b60405190151581526020015b60405180910390f35b3480156104a357600080fd5b506104b76104b23660046147f1565b610ee2565b005b3480156104c557600080fd5b5060205461048290610100900460ff1681565b3480156104e457600080fd5b506104ed6110ca565b60405161048e9190614c9a565b34801561050657600080fd5b5061051a61051536600461498d565b61115c565b6040516001600160a01b03909116815260200161048e565b34801561053e57600080fd5b506104b761054d3660046146d7565b6111a0565b6104ed61056036600461465d565b611240565b34801561057157600080fd5b506104ed604051806040016040528060018152602001603160f81b81525081565b34801561059e57600080fd5b506104b76105ad366004614955565b61142a565b3480156105be57600080fd5b50600154600054035b60405190815260200161048e565b3480156105e157600080fd5b506009546105c7565b3480156105f657600080fd5b506104b76106053660046149a5565b611491565b34801561061657600080fd5b506104b7610625366004614587565b611504565b6104b76106383660046147f1565b61150f565b34801561064957600080fd5b50601a5461066490600160401b90046001600160401b031681565b6040516001600160401b03909116815260200161048e565b34801561068857600080fd5b506105c7610697366004614533565b6001600160a01b03166000908152600a602052604090205490565b3480156106be57600080fd5b50601c546106d490600160801b900461ffff1681565b60405161ffff909116815260200161048e565b3480156106f357600080fd5b50601d54610664906001600160401b031681565b34801561071357600080fd5b50466105c7565b34801561072657600080fd5b506105c760115481565b34801561073c57600080fd5b506104b761074b36600461498d565b61165c565b34801561075c57600080fd5b506104b761076b366004614587565b6116aa565b34801561077c57600080fd5b506104b761078b36600461498d565b6116c5565b34801561079c57600080fd5b50601c546106d490600160901b900461ffff1681565b3480156107be57600080fd5b506104b76107cd366004614a4a565b611734565b3480156107de57600080fd5b506104b76107ed366004614736565b6117e3565b3480156107fe57600080fd5b506104b7611a71565b34801561081357600080fd5b50601c54610664906001600160401b031681565b34801561083357600080fd5b506104b7611b23565b34801561084857600080fd5b50610664610857366004614533565b6019602052600090815260409020546001600160401b031681565b34801561087e57600080fd5b5061051a61088d36600461498d565b611bd6565b34801561089e57600080fd5b50601c546106d490600160c01b900461ffff1681565b3480156108c057600080fd5b506105c7601e5481565b3480156108d657600080fd5b506104ed611be8565b3480156108eb57600080fd5b50601a54610664906001600160401b031681565b34801561090b57600080fd5b506105c761091a366004614533565b611c76565b34801561092b57600080fd5b506104b7611cc4565b34801561094057600080fd5b5061066461094f366004614533565b6014602052600090815260409020546001600160401b031681565b34801561097657600080fd5b506104b7610985366004614a8f565b611d19565b34801561099657600080fd5b506104b76109a5366004614736565b611ece565b3480156109b657600080fd5b50601a5461066490600160c01b90046001600160401b031681565b3480156109dd57600080fd5b506106646109ec366004614533565b6015602052600090815260409020546001600160401b031681565b348015610a1357600080fd5b50601b54610664906001600160401b031681565b348015610a3357600080fd5b50600b546001600160a01b031661051a565b348015610a5157600080fd5b50601c546106d490600160a01b900461ffff1681565b6104b7610a75366004614702565b611fde565b348015610a8657600080fd5b506104ed612283565b348015610a9b57600080fd5b506104b7610aaa366004614630565b612292565b348015610abb57600080fd5b506105c760135481565b348015610ad157600080fd5b506105c760105481565b348015610ae757600080fd5b50600f5461051a906001600160a01b031681565b348015610b0757600080fd5b506104b7610b16366004614a2a565b612365565b6104b7610b293660046147f1565b612417565b348015610b3a57600080fd5b50600f54610b4f90600160a01b900460ff1681565b60405161048e9190614cad565b348015610b6857600080fd5b506104b7610b773660046145c7565b612568565b348015610b8857600080fd5b506104b7610b9736600461498d565b6125b3565b348015610ba857600080fd5b50610664610bb7366004614533565b6018602052600090815260409020546001600160401b031681565b348015610bde57600080fd5b50610664610bed366004614533565b6016602052600090815260409020546001600160401b031681565b348015610c1457600080fd5b50601b5461066490600160c01b90046001600160401b031681565b348015610c3b57600080fd5b50601c5461066490600160401b90046001600160401b031681565b6104b7610c643660046147f1565b612601565b348015610c7557600080fd5b50601a5461066490600160801b90046001600160401b031681565b348015610c9c57600080fd5b506104ed610cab36600461498d565b612743565b348015610cbc57600080fd5b506104b7610ccb366004614895565b6127dd565b348015610cdc57600080fd5b506020546104829060ff1681565b348015610cf657600080fd5b506104b7612a0b565b348015610d0b57600080fd5b506104b7610d1a36600461498d565b612ab6565b348015610d2b57600080fd5b506104ed612b04565b348015610d4057600080fd5b50601b5461066490600160401b90046001600160401b031681565b348015610d6757600080fd5b506105c760125481565b348015610d7d57600080fd5b50610664610d8c366004614533565b6017602052600090815260409020546001600160401b031681565b348015610db357600080fd5b50610482610dc236600461454f565b612b11565b348015610dd357600080fd5b506104b7610de2366004614533565b612be1565b348015610df357600080fd5b506104b7610e02366004614955565b612c9b565b348015610e1357600080fd5b50601c546106d490600160b01b900461ffff1681565b348015610e3557600080fd5b50601b5461066490600160801b90046001600160401b031681565b348015610e5c57600080fd5b506104b7610e6b36600461498d565b612d00565b348015610e7c57600080fd5b506104b7610e8b366004614b60565b612d4e565b60006001600160e01b031982166380ac58cd60e01b1480610ec157506001600160e01b03198216635b5e139f60e01b145b80610edc57506301ffc9a760e01b6001600160e01b03198316145b92915050565b601c54600160801b900461ffff168160156000610efd612ed2565b6001600160a01b03168152602081019190915260400160002054610f2a91906001600160401b0316614dfa565b6001600160401b03161115610f865760405162461bcd60e51b815260206004820152601a60248201527f657863656564696e67206c696d6974207065722077616c6c657400000000000060448201526064015b60405180910390fd5b601b54601a546001600160401b03600160801b909204821691610fb3918491600160401b90910416614dfa565b6001600160401b0316111561100a5760405162461bcd60e51b815260206004820152601d60248201527f657863656564696e6720746f74616c2061697264726f70206c696d69740000006044820152606401610f7d565b8060156000611017612ed2565b6001600160a01b0316815260208101919091526040016000908120805490919061104b9084906001600160401b0316614dfa565b92506101000a8154816001600160401b0302191690836001600160401b0316021790555080601a60088282829054906101000a90046001600160401b03166110939190614dfa565b92506101000a8154816001600160401b0302191690836001600160401b031602179055506110c660135483836001612ee1565b5050565b6060600280546110d990614e92565b80601f016020809104026020016040519081016040528092919081815260200182805461110590614e92565b80156111525780601f1061112757610100808354040283529160200191611152565b820191906000526020600020905b81548152906001019060200180831161113557829003601f168201915b5050505050905090565b600061116782612f3e565b611184576040516333d1c03960e21b815260040160405180910390fd5b506000908152600660205260409020546001600160a01b031690565b60006111ab82611bd6565b9050806001600160a01b0316836001600160a01b031614156111e05760405163250fdee360e21b815260040160405180910390fd5b806001600160a01b03166111f2612ed2565b6001600160a01b031614158015611212575061121081610dc2612ed2565b155b15611230576040516367d9dca160e11b815260040160405180910390fd5b61123b838383612f69565b505050565b60408051606081810183526001600160a01b0388166000818152600a60209081529085902054845283015291810186905261127e8782878787612fc5565b6112d45760405162461bcd60e51b815260206004820152602160248201527f5369676e657220616e64207369676e617475726520646f206e6f74206d6174636044820152600d60fb1b6064820152608401610f7d565b6001600160a01b0387166000908152600a60205260409020546112f89060016130b5565b6001600160a01b0388166000908152600a60205260409081902091909155517f5845892132946850460bff5a0083f71031bc5bf9aadcd40f1de79423eac9b10b9061134890899033908a90614c28565b60405180910390a1600080306001600160a01b0316888a604051602001611370929190614bc2565b60408051601f198184030181529082905261138a91614ba6565b6000604051808303816000865af19150503d80600081146113c7576040519150601f19603f3d011682016040523d82523d6000602084013e6113cc565b606091505b50915091508161141e5760405162461bcd60e51b815260206004820152601c60248201527f46756e6374696f6e2063616c6c206e6f74207375636365737366756c000000006044820152606401610f7d565b98975050505050505050565b611432612ed2565b6001600160a01b031661144d600b546001600160a01b031690565b6001600160a01b0316146114735760405162461bcd60e51b8152600401610f7d90614d5a565b6020805491151563010000000263ff00000019909216919091179055565b611499612ed2565b6001600160a01b03166114b4600b546001600160a01b031690565b6001600160a01b0316146114da5760405162461bcd60e51b8152600401610f7d90614d5a565b6114e384612d00565b6114ec83612ab6565b6114f58261165c565b6114fe816125b3565b50505050565b61123b8383836130c1565b806001600160401b0316600081601e546115299190614e30565b600f549091506000906001600160a01b03166370a08231611548612ed2565b6040516001600160e01b031960e084901b1681526001600160a01b03909116600482015260240160206040518083038186803b15801561158757600080fd5b505afa15801561159b573d6000803e3d6000fd5b505050506040513d601f19601f820116820180604052508101906115bf9190614b48565b90506115f76040518060400160405280601e8152602001600080516020614ffb83398151915281525083836115f2612ed2565b6132bc565b808211156116175760405162461bcd60e51b8152600401610f7d90614d2f565b601c54601a5460125461165592601792600160a01b820461ffff1692600160c01b9091046001600160401b0390811692169089906002908c90613305565b5050505050565b611664612ed2565b6001600160a01b031661167f600b546001600160a01b031690565b6001600160a01b0316146116a55760405162461bcd60e51b8152600401610f7d90614d5a565b601255565b61123b83838360405180602001604052806000815250612568565b60006116d082611bd6565b90506116da612ed2565b6001600160a01b0316816001600160a01b03161461172b5760405162461bcd60e51b815260206004820152600e60248201526d6e6f207065726d697373696f6e7360901b6044820152606401610f7d565b6110c682613548565b61173c612ed2565b6001600160a01b0316611757600b546001600160a01b031690565b6001600160a01b03161461177d5760405162461bcd60e51b8152600401610f7d90614d5a565b60205460ff16156117d05760405162461bcd60e51b815260206004820152601e60248201527f4d65746164617461206973207065726d616e656e746c792066726f7a656e00006044820152606401610f7d565b80516110c690601f90602084019061437e565b6117eb612ed2565b6001600160a01b0316611806600b546001600160a01b031690565b6001600160a01b03161461182c5760405162461bcd60e51b8152600401610f7d90614d5a565b805182511461187d5760405162461bcd60e51b815260206004820181905260248201527f50617965657320616e6420616d6f756e74732073697a65206d69736d617463686044820152606401610f7d565b60005b825181101561123b57600f5483516001600160a01b039091169063095ea7b3908590849081106118c057634e487b7160e01b600052603260045260246000fd5b60200260200101518484815181106118e857634e487b7160e01b600052603260045260246000fd5b60200260200101516040518363ffffffff1660e01b81526004016119219291906001600160a01b03929092168252602082015260400190565b602060405180830381600087803b15801561193b57600080fd5b505af115801561194f573d6000803e3d6000fd5b505050506040513d601f19601f820116820180604052508101906119739190614971565b50600f5483516001600160a01b039091169063a9059cbb908590849081106119ab57634e487b7160e01b600052603260045260246000fd5b60200260200101518484815181106119d357634e487b7160e01b600052603260045260246000fd5b60200260200101516040518363ffffffff1660e01b8152600401611a0c9291906001600160a01b03929092168252602082015260400190565b602060405180830381600087803b158015611a2657600080fd5b505af1158015611a3a573d6000803e3d6000fd5b505050506040513d601f19601f82011682018060405250810190611a5e9190614971565b5080611a6981614ecd565b915050611880565b611a79612ed2565b6001600160a01b0316611a94600b546001600160a01b031690565b6001600160a01b031614611aba5760405162461bcd60e51b8152600401610f7d90614d5a565b602054610100900460ff1615611b125760405162461bcd60e51b815260206004820152601a60248201527f53657474696e677320697320616c72656164792066726f7a656e0000000000006044820152606401610f7d565b6020805461ff001916610100179055565b611b2b612ed2565b6001600160a01b0316611b46600b546001600160a01b031690565b6001600160a01b031614611b6c5760405162461bcd60e51b8152600401610f7d90614d5a565b602054640100000000900460ff1615611bbf5760405162461bcd60e51b81526020600482015260156024820152741391951cc8185b1c9958591e481c995d99585b1959605a1b6044820152606401610f7d565b6020805464ff000000001916640100000000179055565b6000611be182613553565b5192915050565b601f8054611bf590614e92565b80601f0160208091040260200160405190810160405280929190818152602001828054611c2190614e92565b8015611c6e5780601f10611c4357610100808354040283529160200191611c6e565b820191906000526020600020905b815481529060010190602001808311611c5157829003601f168201915b505050505081565b60006001600160a01b038216611c9f576040516323d3ad8160e21b815260040160405180910390fd5b506001600160a01b03166000908152600560205260409020546001600160401b031690565b611ccc612ed2565b6001600160a01b0316611ce7600b546001600160a01b031690565b6001600160a01b031614611d0d5760405162461bcd60e51b8152600401610f7d90614d5a565b611d17600061366d565b565b611d21612ed2565b6001600160a01b0316611d3c600b546001600160a01b031690565b6001600160a01b031614611d625760405162461bcd60e51b8152600401610f7d90614d5a565b602054610100900460ff1615611dba5760405162461bcd60e51b815260206004820152601f60248201527f53657474696e677320617265207065726d616e656e746c792066726f7a656e006044820152606401610f7d565b601c8054601b805477ffffffffffffffffffffffffffffffff00000000000000001916600160401b6001600160401b03998a16810267ffffffffffffffff60801b191691909117600160801b988a168902176001600160c01b0316600160c01b978a1688021790915593871663ffffffff60801b1990911661ffff9c8d1690960261ffff60901b191695909517600160901b9a8c169a909a029990991763ffffffff60a01b1916600160a01b988b169890980261ffff60b01b191697909717600160b01b968a16969096029590951779ffff0000000000000000ffffffffffffffffffffffffffffffff1916939097169096026001600160801b031916919091179490941791909316909202919091179055565b611ed6612ed2565b6001600160a01b0316611ef1600b546001600160a01b031690565b6001600160a01b031614611f175760405162461bcd60e51b8152600401610f7d90614d5a565b8051825114611f685760405162461bcd60e51b815260206004820181905260248201527f50617965657320616e6420616d6f756e74732073697a65206d69736d617463686044820152606401610f7d565b60005b825181101561123b57611fcc838281518110611f9757634e487b7160e01b600052603260045260246000fd5b6020026020010151838381518110611fbf57634e487b7160e01b600052603260045260246000fd5b60200260200101516136bf565b80611fd681614ecd565b915050611f6b565b806001600160401b0316600081601e54611ff89190614e30565b600f549091506000906001600160a01b03166370a08231612017612ed2565b6040516001600160e01b031960e084901b1681526001600160a01b03909116600482015260240160206040518083038186803b15801561205657600080fd5b505afa15801561206a573d6000803e3d6000fd5b505050506040513d601f19601f8201168201806040525081019061208e9190614b48565b90506120c16040518060400160405280601e8152602001600080516020614ffb83398151915281525083836115f2612ed2565b808211156120e15760405162461bcd60e51b8152600401610f7d90614d2f565b6004600f54600160a01b900460ff16600481111561210f57634e487b7160e01b600052602160045260246000fd5b146121555760405162461bcd60e51b81526020600482015260166024820152751b9bdd199bdc881c1d589b1a58c81cd85b19481e595d60521b6044820152606401610f7d565b601c54600160c01b900461ffff168460196000612170612ed2565b6001600160a01b0316815260208101919091526040016000205461219d91906001600160401b0316614dfa565b6001600160401b031611156121f45760405162461bcd60e51b815260206004820152601e60248201527f657863656564696e67206d6178206c696d6974207065722077616c6c657400006044820152606401610f7d565b8360196000612201612ed2565b6001600160a01b031681526020810191909152604001600090812080549091906122359084906001600160401b0316614dfa565b92506101000a8154816001600160401b0302191690836001600160401b03160217905550612278846001600160401b0316601e546122739190614e30565b613755565b506116558585613988565b6060600380546110d990614e92565b61229a612ed2565b6001600160a01b0316826001600160a01b031614156122cc5760405163b06307db60e01b815260040160405180910390fd5b80600760006122d9612ed2565b6001600160a01b03908116825260208083019390935260409182016000908120918716808252919093529120805460ff19169215159290921790915561231d612ed2565b6001600160a01b03167f17307eab39ab6107e8899845ad3d59bd9653f200f220920489ca2b5937696c3183604051612359911515815260200190565b60405180910390a35050565b61236d612ed2565b6001600160a01b0316612388600b546001600160a01b031690565b6001600160a01b0316146123ae5760405162461bcd60e51b8152600401610f7d90614d5a565b600f54600160a01b900460ff1660048111156123da57634e487b7160e01b600052602160045260246000fd5b60ff168260048111156123fd57634e487b7160e01b600052602160045260246000fd5b60ff161461240e5761240e82613a4e565b6110c681613b28565b806001600160401b0316600081601e546124319190614e30565b600f549091506000906001600160a01b03166370a08231612450612ed2565b6040516001600160e01b031960e084901b1681526001600160a01b03909116600482015260240160206040518083038186803b15801561248f57600080fd5b505afa1580156124a3573d6000803e3d6000fd5b505050506040513d601f19601f820116820180604052508101906124c79190614b48565b90506124fa6040518060400160405280601e8152602001600080516020614ffb83398151915281525083836115f2612ed2565b8082111561251a5760405162461bcd60e51b8152600401610f7d90614d2f565b6116556016601c60129054906101000a900461ffff16601a60109054906101000a90046001600160401b0316601b60189054906101000a90046001600160401b03168860018b601154613305565b6125738484846130c1565b6001600160a01b0383163b15158015612595575061259384848484613b76565b155b156114fe576040516368d2bf6b60e11b815260040160405180910390fd5b6125bb612ed2565b6001600160a01b03166125d6600b546001600160a01b031690565b6001600160a01b0316146125fc5760405162461bcd60e51b8152600401610f7d90614d5a565b601055565b806001600160401b0316600081601e5461261b9190614e30565b600f549091506000906001600160a01b03166370a0823161263a612ed2565b6040516001600160e01b031960e084901b1681526001600160a01b03909116600482015260240160206040518083038186803b15801561267957600080fd5b505afa15801561268d573d6000803e3d6000fd5b505050506040513d601f19601f820116820180604052508101906126b19190614b48565b90506126e46040518060400160405280601e8152602001600080516020614ffb83398151915281525083836115f2612ed2565b808211156127045760405162461bcd60e51b8152600401610f7d90614d2f565b601c54601b546010546116559260189261ffff600160b01b830416926001600160401b0391821692600160401b90049091169089906003908c90613305565b606061274e82612f3e565b61276b57604051630a14c4b560e41b815260040160405180910390fd5b6000612775613c73565b602054909150640100000000900460ff166127905792915050565b80516127ab57604051806020016040528060008152506127d6565b806127b584613c82565b6040516020016127c6929190614bf9565b6040516020818303038152906040525b9392505050565b6127e5612ed2565b6001600160a01b0316612800600b546001600160a01b031690565b6001600160a01b0316146128265760405162461bcd60e51b8152600401610f7d90614d5a565b80518251146128775760405162461bcd60e51b815260206004820152601f60248201527f636f756e74732073697a6520213d20746f4164647265737365732073697a65006044820152606401610f7d565b6000805b83518160ff1610156128cf57838160ff16815181106128aa57634e487b7160e01b600052603260045260246000fd5b6020026020010151826128bd9190614dfa565b91506128c881614ee8565b905061287b565b50601b54601a546001600160401b03600160401b9092048216916128f591849116614dfa565b6001600160401b0316111561294c5760405162461bcd60e51b815260206004820152601a60248201527f657863656564696e6720746f74616c207465616d206c696d69740000000000006044820152606401610f7d565b601a805482919060009061296a9084906001600160401b0316614dfa565b92506101000a8154816001600160401b0302191690836001600160401b0316021790555060005b83518160ff1610156114fe576129fb838260ff16815181106129c357634e487b7160e01b600052603260045260246000fd5b6020026020010151858360ff16815181106129ee57634e487b7160e01b600052603260045260246000fd5b6020026020010151613988565b612a0481614ee8565b9050612991565b612a13612ed2565b6001600160a01b0316612a2e600b546001600160a01b031690565b6001600160a01b031614612a545760405162461bcd60e51b8152600401610f7d90614d5a565b60205460ff1615612aa75760405162461bcd60e51b815260206004820152601a60248201527f4d6574616461746120697320616c72656164792066726f7a656e0000000000006044820152606401610f7d565b6020805460ff19166001179055565b612abe612ed2565b6001600160a01b0316612ad9600b546001600160a01b031690565b6001600160a01b031614612aff5760405162461bcd60e51b8152600401610f7d90614d5a565b601155565b600c8054611bf590614e92565b600e5460405163c455279160e01b81526001600160a01b03848116600483015260009281169190841690829063c45527919060240160206040518083038186803b158015612b5e57600080fd5b505afa158015612b72573d6000803e3d6000fd5b505050506040513d601f19601f82011682018060405250810190612b969190614a0e565b6001600160a01b03161415612baf576001915050610edc565b6001600160a01b0380851660009081526007602090815260408083209387168352929052205460ff165b949350505050565b612be9612ed2565b6001600160a01b0316612c04600b546001600160a01b031690565b6001600160a01b031614612c2a5760405162461bcd60e51b8152600401610f7d90614d5a565b6001600160a01b038116612c8f5760405162461bcd60e51b815260206004820152602660248201527f4f776e61626c653a206e6577206f776e657220697320746865207a65726f206160448201526564647265737360d01b6064820152608401610f7d565b612c988161366d565b50565b612ca3612ed2565b6001600160a01b0316612cbe600b546001600160a01b031690565b6001600160a01b031614612ce45760405162461bcd60e51b8152600401610f7d90614d5a565b60208054911515620100000262ff000019909216919091179055565b612d08612ed2565b6001600160a01b0316612d23600b546001600160a01b031690565b6001600160a01b031614612d495760405162461bcd60e51b8152600401610f7d90614d5a565b601355565b612d56612ed2565b6001600160a01b0316612d71600b546001600160a01b031690565b6001600160a01b031614612d975760405162461bcd60e51b8152600401610f7d90614d5a565b600054816001600160401b03161015612df25760405162461bcd60e51b815260206004820152601e60248201527f63616e6e6f74207265647563652062656c6f7720746f74616c206d696e7400006044820152606401610f7d565b601d546001600160401b0390811690821610612e495760405162461bcd60e51b815260206004820152601660248201527573686f756c64206265203c204d415820535550504c5960501b6044820152606401610f7d565b601d805467ffffffffffffffff19166001600160401b0392909216919091179055565b80546001019055565b600033301415612ecc57600080368080601f0160208091040260200160405190810160405280939291908181526020018383808284376000920191909152505050503601516001600160a01b03169150612ecf9050565b50335b90565b6000612edc612e75565b905090565b8015612f2d57612ef18484613d9b565b612f2d5760405162461bcd60e51b815260206004820152600d60248201526c24b73b30b634b210383937b7b360991b6044820152606401610f7d565b6114fe612f38612ed2565b83613988565b6000805482108015610edc575050600090815260046020526040902054600160e01b900460ff161590565b60008281526006602052604080822080546001600160a01b0319166001600160a01b0387811691821790925591518593918516917f8c5be1e5ebec7d5bd14f71427d1e84f3dd0314c0f7b2291e5b200ac8c7c3b92591a4505050565b60006001600160a01b03861661302b5760405162461bcd60e51b815260206004820152602560248201527f4e61746976654d6574615472616e73616374696f6e3a20494e56414c49445f5360448201526424a3a722a960d91b6064820152608401610f7d565b600161303e61303987613e39565b613eb6565b6040805160008152602081018083529290925260ff851690820152606081018690526080810185905260a0016020604051602081039080840390855afa15801561308c573d6000803e3d6000fd5b505050602060405103516001600160a01b0316866001600160a01b031614905095945050505050565b60006127d68284614de2565b60006130cc82613553565b9050836001600160a01b031681600001516001600160a01b0316146131035760405162a1148160e81b815260040160405180910390fd5b6000846001600160a01b0316613117612ed2565b6001600160a01b03161480613133575061313385610dc2612ed2565b8061315e5750613141612ed2565b6001600160a01b03166131538461115c565b6001600160a01b0316145b90508061317e57604051632ce44b5f60e11b815260040160405180910390fd5b6001600160a01b0384166131a557604051633a954ecd60e21b815260040160405180910390fd5b6131b160008487612f69565b6001600160a01b038581166000908152600560209081526040808320805467ffffffffffffffff198082166001600160401b0392831660001901831617909255898616808652838620805493841693831660019081018416949094179055898652600490945282852080546001600160e01b031916909417600160a01b4290921691909102178355870180845292208054919390911661328557600054821461328557805460208601516001600160401b0316600160a01b026001600160e01b03199091166001600160a01b038a16171781555b50505082846001600160a01b0316866001600160a01b0316600080516020614fdb83398151915260405160405180910390a4611655565b6114fe848484846040516024016132d69493929190614cf7565b60408051601f198184030181529190526020810180516001600160e01b031663bed728bf60e01b179052613ee6565b82600481111561332557634e487b7160e01b600052602160045260246000fd5b600f54600160a01b900460ff16600481111561335157634e487b7160e01b600052602160045260246000fd5b146133965760405162461bcd60e51b81526020600482015260156024820152746e6f7420696e20726571756972656420706861736560581b6044820152606401610f7d565b8661ffff16848960006133a7612ed2565b6001600160a01b031681526020810191909152604001600020546133d491906001600160401b0316614dfa565b6001600160401b0316111561342b5760405162461bcd60e51b815260206004820152601a60248201527f657863656564696e67206c696d6974207065722077616c6c65740000000000006044820152606401610f7d565b6001600160401b03851661343f8588614dfa565b6001600160401b031611156134965760405162461bcd60e51b815260206004820152601960248201527f657863656564696e6720746f74616c20766970206c696d6974000000000000006044820152606401610f7d565b838860006134a2612ed2565b6001600160a01b031681526020810191909152604001600090812080549091906134d69084906001600160401b0316614dfa565b92506101000a8154816001600160401b0302191690836001600160401b0316021790555083866135069190614dfa565b9550613522846001600160401b0316601e546122739190614e30565b5061353e818386602060029054906101000a900460ff16612ee1565b5050505050505050565b612c98816000613f07565b60408051606081018252600080825260208201819052918101919091528160005481101561365457600081815260046020908152604091829020825160608101845290546001600160a01b0381168252600160a01b81046001600160401b031692820192909252600160e01b90910460ff161515918101829052906136525780516001600160a01b0316156135e9579392505050565b5060001901600081815260046020908152604091829020825160608101845290546001600160a01b038116808352600160a01b82046001600160401b031693830193909352600160e01b900460ff161515928101929092521561364d579392505050565b6135e9565b505b604051636f96cda160e11b815260040160405180910390fd5b600b80546001600160a01b038381166001600160a01b0319831681179093556040519116919082907f8be0079c531659141344cd1fd0a4f28419497f9722a3daafe3b4186f6b6457e090600090a35050565b6000826001600160a01b03168260405160006040518083038185875af1925050503d806000811461370c576040519150601f19603f3d011682016040523d82523d6000602084013e613711565b606091505b505090508061123b5760405162461bcd60e51b815260206004820152601060248201526f2a3930b739b332b9103330b4b632b21760811b6044820152606401610f7d565b600061378b604051806040016040528060128152602001715472616e73666572546f6b656e733a20257360701b815250836140dc565b600f546040516370a0823160e01b81523060048201526000916001600160a01b0316906370a082319060240160206040518083038186803b1580156137cf57600080fd5b505afa1580156137e3573d6000803e3d6000fd5b505050506040513d601f19601f820116820180604052508101906138079190614b48565b600f549091506001600160a01b03166323b872dd613823612ed2565b6040516001600160e01b031960e084901b1681526001600160a01b03909116600482015230602482015260448101869052606401602060405180830381600087803b15801561387157600080fd5b505af1158015613885573d6000803e3d6000fd5b505050506040513d601f19601f820116820180604052508101906138a99190614971565b50600f546040516370a0823160e01b81523060048201526000916001600160a01b0316906370a082319060240160206040518083038186803b1580156138ee57600080fd5b505afa158015613902573d6000803e3d6000fd5b505050506040513d601f19601f820116820180604052508101906139269190614b48565b9050836139338383614e4f565b146139805760405162461bcd60e51b815260206004820152601860248201527f436f756c64206e6f74207265636965766520746f6b656e7300000000000000006044820152606401610f7d565b509192915050565b6020546301000000900460ff16156139d65760405162461bcd60e51b8152602060048201526011602482015270135a5b9d1a5b99c81a5cc81c185d5cd959607a1b6044820152606401610f7d565b601d546001600160401b039081169082166139f060005490565b6139fa9190614de2565b1115613a3b5760405162461bcd60e51b815260206004820152601060248201526f537570706c7920657863656564696e6760801b6044820152606401610f7d565b6110c682826001600160401b0316614121565b600f54600160a01b900460ff166004811115613a7a57634e487b7160e01b600052602160045260246000fd5b60ff16816004811115613a9d57634e487b7160e01b600052602160045260246000fd5b60ff1611613aed5760405162461bcd60e51b815260206004820152601760248201527f63616e206f6e6c7920616476616e6365207068617365730000000000000000006044820152606401610f7d565b600f805482919060ff60a01b1916600160a01b836004811115613b2057634e487b7160e01b600052602160045260246000fd5b021790555050565b613b30612ed2565b6001600160a01b0316613b4b600b546001600160a01b031690565b6001600160a01b031614613b715760405162461bcd60e51b8152600401610f7d90614d5a565b601e55565b6000836001600160a01b031663150b7a02613b8f612ed2565b8786866040518563ffffffff1660e01b8152600401613bb19493929190614c5d565b602060405180830381600087803b158015613bcb57600080fd5b505af1925050508015613bfb575060408051601f3d908101601f19168201909252613bf8918101906149f2565b60015b613c56573d808015613c29576040519150601f19603f3d011682016040523d82523d6000602084013e613c2e565b606091505b508051613c4e576040516368d2bf6b60e11b815260040160405180910390fd5b805181602001fd5b6001600160e01b031916630a85bd0160e11b149050949350505050565b6060601f80546110d990614e92565b606081613ca65750506040805180820190915260018152600360fc1b602082015290565b8160005b8115613cd05780613cba81614ecd565b9150613cc99050600a83614e1c565b9150613caa565b6000816001600160401b03811115613cf857634e487b7160e01b600052604160045260246000fd5b6040519080825280601f01601f191660200182016040528015613d22576020820181803683370190505b5090505b8415612bd957613d37600183614e4f565b9150613d44600a86614f08565b613d4f906030614de2565b60f81b818381518110613d7257634e487b7160e01b600052603260045260246000fd5b60200101906001600160f81b031916908160001a905350613d94600a86614e1c565b9450613d26565b600080613da6612ed2565b604051602001613dce919060609190911b6bffffffffffffffffffffffff1916815260140190565b604051602081830303815290604052805190602001209050613df183858361413b565b613e2f5760405162461bcd60e51b815260206004820152600f60248201526e24b731b7b93932b1ba10383937b7b360891b6044820152606401610f7d565b5060019392505050565b6000604051806080016040528060438152602001614f986043913980516020918201208351848301516040808701518051908601209051613e99950193845260208401929092526001600160a01b03166040830152606082015260800190565b604051602081830303815290604052805190602001209050919050565b6000613ec160095490565b60405161190160f01b6020820152602281019190915260428101839052606201613e99565b80516a636f6e736f6c652e6c6f67602083016000808483855afa5050505050565b6000613f1283613553565b80519091508215613f9a576000816001600160a01b0316613f31612ed2565b6001600160a01b03161480613f4d5750613f4d82610dc2612ed2565b80613f785750613f5b612ed2565b6001600160a01b0316613f6d8661115c565b6001600160a01b0316145b905080613f9857604051632ce44b5f60e11b815260040160405180910390fd5b505b613fa660008583612f69565b6001600160a01b0380821660008181526005602090815260408083208054600160801b6000196001600160401b0380841691909101811667ffffffffffffffff198416811783900482166001908101831690930277ffffffffffffffff0000000000000000ffffffffffffffff19909416179290921783558b86526004909452828520805460ff60e01b1942909316600160a01b026001600160e01b03199091169097179690961716600160e01b1785559189018084529220805491949091166140a45760005482146140a457805460208701516001600160401b0316600160a01b026001600160e01b03199091166001600160a01b038716171781555b5050604051869250600091506001600160a01b03841690600080516020614fdb833981519152908390a4505060018054810190555050565b6110c682826040516024016140f2929190614cd5565b60408051601f198184030181529190526020810180516001600160e01b03166309710a9d60e41b179052613ee6565b6110c6828260405180602001604052806000815250614151565b600082614148858461415e565b14949350505050565b61123b83838360016141e0565b600081815b84518110156141d857600085828151811061418e57634e487b7160e01b600052603260045260246000fd5b602002602001015190508083116141b457600083815260208290526040902092506141c5565b600081815260208490526040902092505b50806141d081614ecd565b915050614163565b509392505050565b6000546001600160a01b03851661420957604051622e076360e81b815260040160405180910390fd5b836142275760405163b562e8dd60e01b815260040160405180910390fd5b6001600160a01b038516600081815260056020908152604080832080546001600160801b031981166001600160401b038083168c018116918217600160401b67ffffffffffffffff1990941690921783900481168c01811690920217909155858452600490925290912080546001600160e01b031916909217600160a01b4290921691909102179055808085018380156142ca57506001600160a01b0387163b15155b15614341575b60405182906001600160a01b03891690600090600080516020614fdb833981519152908290a46143096000888480600101955088613b76565b614326576040516368d2bf6b60e11b815260040160405180910390fd5b808214156142d057826000541461433c57600080fd5b614375565b5b6040516001830192906001600160a01b03891690600090600080516020614fdb833981519152908290a480821415614342575b50600055611655565b82805461438a90614e92565b90600052602060002090601f0160209004810192826143ac57600085556143f2565b82601f106143c557805160ff19168380011785556143f2565b828001600101855582156143f2579182015b828111156143f25782518255916020019190600101906143d7565b506143fe929150614402565b5090565b5b808211156143fe5760008155600101614403565b60006001600160401b0383111561443057614430614f48565b614443601f8401601f1916602001614d8f565b905082815283838301111561445757600080fd5b828260208301376000602084830101529392505050565b600082601f83011261447e578081fd5b8135602061449361448e83614dbf565b614d8f565b80838252828201915082860187848660051b89010111156144b2578586fd5b855b858110156144d95781356144c781614f5e565b845292840192908401906001016144b4565b5090979650505050505050565b600082601f8301126144f6578081fd5b6127d683833560208501614417565b803561ffff8116811461451757600080fd5b919050565b80356001600160401b038116811461451757600080fd5b600060208284031215614544578081fd5b81356127d681614f5e565b60008060408385031215614561578081fd5b823561456c81614f5e565b9150602083013561457c81614f5e565b809150509250929050565b60008060006060848603121561459b578081fd5b83356145a681614f5e565b925060208401356145b681614f5e565b929592945050506040919091013590565b600080600080608085870312156145dc578182fd5b84356145e781614f5e565b935060208501356145f781614f5e565b92506040850135915060608501356001600160401b03811115614618578182fd5b614624878288016144e6565b91505092959194509250565b60008060408385031215614642578182fd5b823561464d81614f5e565b9150602083013561457c81614f73565b600080600080600060a08688031215614674578283fd5b853561467f81614f5e565b945060208601356001600160401b03811115614699578384fd5b6146a5888289016144e6565b9450506040860135925060608601359150608086013560ff811681146146c9578182fd5b809150509295509295909350565b600080604083850312156146e9578182fd5b82356146f481614f5e565b946020939093013593505050565b60008060408385031215614714578182fd5b823561471f81614f5e565b915061472d6020840161451c565b90509250929050565b60008060408385031215614748578182fd5b82356001600160401b038082111561475e578384fd5b61476a8683870161446e565b9350602091508185013581811115614780578384fd5b85019050601f81018613614792578283fd5b80356147a061448e82614dbf565b80828252848201915084840189868560051b87010111156147bf578687fd5b8694505b838510156147e15780358352600194909401939185019185016147c3565b5080955050505050509250929050565b60008060408385031215614803578182fd5b82356001600160401b03811115614818578283fd5b8301601f81018513614828578283fd5b8035602061483861448e83614dbf565b80838252828201915082850189848660051b8801011115614857578788fd5b8795505b8486101561487957803583526001959095019491830191830161485b565b509550614889905086820161451c565b93505050509250929050565b600080604083850312156148a7578182fd5b82356001600160401b03808211156148bd578384fd5b818501915085601f8301126148d0578384fd5b813560206148e061448e83614dbf565b8083825282820191508286018a848660051b89010111156148ff578889fd5b8896505b84871015614928576149148161451c565b835260019690960195918301918301614903565b509650508601359250508082111561493e578283fd5b5061494b8582860161446e565b9150509250929050565b600060208284031215614966578081fd5b81356127d681614f73565b600060208284031215614982578081fd5b81516127d681614f73565b60006020828403121561499e578081fd5b5035919050565b600080600080608085870312156149ba578182fd5b5050823594602084013594506040840135936060013592509050565b6000602082840312156149e7578081fd5b81356127d681614f81565b600060208284031215614a03578081fd5b81516127d681614f81565b600060208284031215614a1f578081fd5b81516127d681614f5e565b60008060408385031215614a3c578182fd5b8235600581106146f4578283fd5b600060208284031215614a5b578081fd5b81356001600160401b03811115614a70578182fd5b8201601f81018413614a80578182fd5b612bd984823560208401614417565b6000806000806000806000806000806101408b8d031215614aae578788fd5b614ab78b614505565b9950614ac560208c01614505565b9850614ad360408c01614505565b9750614ae160608c01614505565b9650614aef60808c01614505565b9550614afd60a08c0161451c565b9450614b0b60c08c0161451c565b9350614b1960e08c0161451c565b9250614b286101008c0161451c565b9150614b376101208c0161451c565b90509295989b9194979a5092959850565b600060208284031215614b59578081fd5b5051919050565b600060208284031215614b71578081fd5b6127d68261451c565b60008151808452614b92816020860160208601614e66565b601f01601f19169290920160200192915050565b60008251614bb8818460208701614e66565b9190910192915050565b60008351614bd4818460208801614e66565b60609390931b6bffffffffffffffffffffffff19169190920190815260140192915050565b60008351614c0b818460208801614e66565b835190830190614c1f818360208801614e66565b01949350505050565b6001600160a01b03848116825283166020820152606060408201819052600090614c5490830184614b7a565b95945050505050565b6001600160a01b0385811682528416602082015260408101839052608060608201819052600090614c9090830184614b7a565b9695505050505050565b6020815260006127d66020830184614b7a565b6020810160058310614ccf57634e487b7160e01b600052602160045260246000fd5b91905290565b604081526000614ce86040830185614b7a565b90508260208301529392505050565b608081526000614d0a6080830187614b7a565b60208301959095525060408101929092526001600160a01b0316606090910152919050565b602080825260119082015270092dce6eaccccd2c6d2cadce840ae8aa89607b1b604082015260600190565b6020808252818101527f4f776e61626c653a2063616c6c6572206973206e6f7420746865206f776e6572604082015260600190565b604051601f8201601f191681016001600160401b0381118282101715614db757614db7614f48565b604052919050565b60006001600160401b03821115614dd857614dd8614f48565b5060051b60200190565b60008219821115614df557614df5614f1c565b500190565b60006001600160401b03808316818516808303821115614c1f57614c1f614f1c565b600082614e2b57614e2b614f32565b500490565b6000816000190483118215151615614e4a57614e4a614f1c565b500290565b600082821015614e6157614e61614f1c565b500390565b60005b83811015614e81578181015183820152602001614e69565b838111156114fe5750506000910152565b600181811c90821680614ea657607f821691505b60208210811415614ec757634e487b7160e01b600052602260045260246000fd5b50919050565b6000600019821415614ee157614ee1614f1c565b5060010190565b600060ff821660ff811415614eff57614eff614f1c565b60010192915050565b600082614f1757614f17614f32565b500690565b634e487b7160e01b600052601160045260246000fd5b634e487b7160e01b600052601260045260246000fd5b634e487b7160e01b600052604160045260246000fd5b6001600160a01b0381168114612c9857600080fd5b8015158114612c9857600080fd5b6001600160e01b031981168114612c9857600080fdfe4d6574615472616e73616374696f6e2875696e74323536206e6f6e63652c616464726573732066726f6d2c62797465732066756e6374696f6e5369676e617475726529ddf252ad1be2c89b69c2b068fc378daa952ba7f163c4a11628f55a4df523b3ef76616c6964617465574574685061796d656e742025732c2025732c2025730000a26469706673582212206ab3c2fc9804e404837142067fa0fe8fb73ec6ab591caf5a4c3080c0819eaf7e64736f6c63430008040033454950373132446f6d61696e28737472696e67206e616d652c737472696e672076657273696f6e2c6164647265737320766572696679696e67436f6e74726163742c627974657333322073616c7429",
  "linkReferences": {},
  "deployedLinkReferences": {}
}