{
  "_format": "hh-sol-artifact-1",
  "contractName": "FFWClubNFT",
  "sourceName": "contracts/FFWClub-NFT.sol",
  "abi": [
    {
      "inputs": [
        {
          "internalType": "address",
          "name": "_proxyRegistryAddress",
          "type": "address"
        },
        {
          "internalType": "uint64",
          "name": "maxSupply",
          "type": "uint64"
        }
      ],
      "stateMutability": "nonpayable",
      "type": "constructor"
    },
    {
      "inputs": [],
      "name": "ApprovalCallerNotOwnerNorApproved",
      "type": "error"
    },
    {
      "inputs": [],
      "name": "ApprovalQueryForNonexistentToken",
      "type": "error"
    },
    {
      "inputs": [],
      "name": "ApprovalToCurrentOwner",
      "type": "error"
    },
    {
      "inputs": [],
      "name": "ApproveToCaller",
      "type": "error"
    },
    {
      "inputs": [],
      "name": "BalanceQueryForZeroAddress",
      "type": "error"
    },
    {
      "inputs": [],
      "name": "MintToZeroAddress",
      "type": "error"
    },
    {
      "inputs": [],
      "name": "MintZeroQuantity",
      "type": "error"
    },
    {
      "inputs": [],
      "name": "OwnerQueryForNonexistentToken",
      "type": "error"
    },
    {
      "inputs": [],
      "name": "TransferCallerNotOwnerNorApproved",
      "type": "error"
    },
    {
      "inputs": [],
      "name": "TransferFromIncorrectOwner",
      "type": "error"
    },
    {
      "inputs": [],
      "name": "TransferToNonERC721ReceiverImplementer",
      "type": "error"
    },
    {
      "inputs": [],
      "name": "TransferToZeroAddress",
      "type": "error"
    },
    {
      "inputs": [],
      "name": "URIQueryForNonexistentToken",
      "type": "error"
    },
    {
      "anonymous": false,
      "inputs": [
        {
          "indexed": true,
          "internalType": "address",
          "name": "owner",
          "type": "address"
        },
        {
          "indexed": true,
          "internalType": "address",
          "name": "approved",
          "type": "address"
        },
        {
          "indexed": true,
          "internalType": "uint256",
          "name": "tokenId",
          "type": "uint256"
        }
      ],
      "name": "Approval",
      "type": "event"
    },
    {
      "anonymous": false,
      "inputs": [
        {
          "indexed": true,
          "internalType": "address",
          "name": "owner",
          "type": "address"
        },
        {
          "indexed": true,
          "internalType": "address",
          "name": "operator",
          "type": "address"
        },
        {
          "indexed": false,
          "internalType": "bool",
          "name": "approved",
          "type": "bool"
        }
      ],
      "name": "ApprovalForAll",
      "type": "event"
    },
    {
      "anonymous": false,
      "inputs": [
        {
          "indexed": false,
          "internalType": "address",
          "name": "userAddress",
          "type": "address"
        },
        {
          "indexed": false,
          "internalType": "address payable",
          "name": "relayerAddress",
          "type": "address"
        },
        {
          "indexed": false,
          "internalType": "bytes",
          "name": "functionSignature",
          "type": "bytes"
        }
      ],
      "name": "MetaTransactionExecuted",
      "type": "event"
    },
    {
      "anonymous": false,
      "inputs": [
        {
          "indexed": true,
          "internalType": "address",
          "name": "previousOwner",
          "type": "address"
        },
        {
          "indexed": true,
          "internalType": "address",
          "name": "newOwner",
          "type": "address"
        }
      ],
      "name": "OwnershipTransferred",
      "type": "event"
    },
    {
      "anonymous": false,
      "inputs": [
        {
          "indexed": true,
          "internalType": "address",
          "name": "from",
          "type": "address"
        },
        {
          "indexed": true,
          "internalType": "address",
          "name": "to",
          "type": "address"
        },
        {
          "indexed": true,
          "internalType": "uint256",
          "name": "tokenId",
          "type": "uint256"
        }
      ],
      "name": "Transfer",
      "type": "event"
    },
    {
      "inputs": [],
      "name": "ERC712_VERSION",
      "outputs": [
        {
          "internalType": "string",
          "name": "",
          "type": "string"
        }
      ],
      "stateMutability": "view",
      "type": "function"
    },
    {
      "inputs": [],
      "name": "MAX_PER_AIRDROP_ADDRESS",
      "outputs": [
        {
          "internalType": "uint16",
          "name": "",
          "type": "uint16"
        }
      ],
      "stateMutability": "view",
      "type": "function"
    },
    {
      "inputs": [],
      "name": "MAX_PER_PRESALE_ADDRESS",
      "outputs": [
        {
          "internalType": "uint16",
          "name": "",
          "type": "uint16"
        }
      ],
      "stateMutability": "view",
      "type": "function"
    },
    {
      "inputs": [],
      "name": "MAX_PER_PUBLICSALE_ADDRESS",
      "outputs": [
        {
          "internalType": "uint16",
          "name": "",
          "type": "uint16"
        }
      ],
      "stateMutability": "view",
      "type": "function"
    },
    {
      "inputs": [],
      "name": "MAX_PER_TEAM_ADDRESS",
      "outputs": [
        {
          "internalType": "uint16",
          "name": "",
          "type": "uint16"
        }
      ],
      "stateMutability": "view",
      "type": "function"
    },
    {
      "inputs": [],
      "name": "MAX_SUPPLY",
      "outputs": [
        {
          "internalType": "uint64",
          "name": "",
          "type": "uint64"
        }
      ],
      "stateMutability": "view",
      "type": "function"
    },
    {
      "inputs": [
        {
          "internalType": "address",
          "name": "",
          "type": "address"
        }
      ],
      "name": "airdropCounter",
      "outputs": [
        {
          "internalType": "uint64",
          "name": "",
          "type": "uint64"
        }
      ],
      "stateMutability": "view",
      "type": "function"
    },
    {
      "inputs": [],
      "name": "airdropMerkleRoot",
      "outputs": [
        {
          "internalType": "bytes32",
          "name": "",
          "type": "bytes32"
        }
      ],
      "stateMutability": "view",
      "type": "function"
    },
    {
      "inputs": [
        {
          "internalType": "address",
          "name": "to",
          "type": "address"
        },
        {
          "internalType": "uint256",
          "name": "tokenId",
          "type": "uint256"
        }
      ],
      "name": "approve",
      "outputs": [],
      "stateMutability": "nonpayable",
      "type": "function"
    },
    {
      "inputs": [
        {
          "internalType": "address",
          "name": "owner",
          "type": "address"
        }
      ],
      "name": "balanceOf",
      "outputs": [
        {
          "internalType": "uint256",
          "name": "",
          "type": "uint256"
        }
      ],
      "stateMutability": "view",
      "type": "function"
    },
    {
      "inputs": [],
      "name": "baseTokenURI",
      "outputs": [
        {
          "internalType": "string",
          "name": "",
          "type": "string"
        }
      ],
      "stateMutability": "view",
      "type": "function"
    },
    {
      "inputs": [],
      "name": "baseURI",
      "outputs": [
        {
          "internalType": "string",
          "name": "",
          "type": "string"
        }
      ],
      "stateMutability": "view",
      "type": "function"
    },
    {
      "inputs": [
        {
          "internalType": "address[]",
          "name": "payees_",
          "type": "address[]"
        },
        {
          "internalType": "uint256[]",
          "name": "amounts_",
          "type": "uint256[]"
        }
      ],
      "name": "disbursePayments",
      "outputs": [],
      "stateMutability": "nonpayable",
      "type": "function"
    },
    {
      "inputs": [
        {
          "internalType": "address",
          "name": "userAddress",
          "type": "address"
        },
        {
          "internalType": "bytes",
          "name": "functionSignature",
          "type": "bytes"
        },
        {
          "internalType": "bytes32",
          "name": "sigR",
          "type": "bytes32"
        },
        {
          "internalType": "bytes32",
          "name": "sigS",
          "type": "bytes32"
        },
        {
          "internalType": "uint8",
          "name": "sigV",
          "type": "uint8"
        }
      ],
      "name": "executeMetaTransaction",
      "outputs": [
        {
          "internalType": "bytes",
          "name": "",
          "type": "bytes"
        }
      ],
      "stateMutability": "payable",
      "type": "function"
    },
    {
      "inputs": [],
      "name": "freezeMetadata",
      "outputs": [],
      "stateMutability": "nonpayable",
      "type": "function"
    },
    {
      "inputs": [],
      "name": "freezeSettings",
      "outputs": [],
      "stateMutability": "nonpayable",
      "type": "function"
    },
    {
      "inputs": [
        {
          "internalType": "uint256",
          "name": "tokenId",
          "type": "uint256"
        }
      ],
      "name": "getApproved",
      "outputs": [
        {
          "internalType": "address",
          "name": "",
          "type": "address"
        }
      ],
      "stateMutability": "view",
      "type": "function"
    },
    {
      "inputs": [],
      "name": "getChainId",
      "outputs": [
        {
          "internalType": "uint256",
          "name": "",
          "type": "uint256"
        }
      ],
      "stateMutability": "view",
      "type": "function"
    },
    {
      "inputs": [],
      "name": "getDomainSeperator",
      "outputs": [
        {
          "internalType": "bytes32",
          "name": "",
          "type": "bytes32"
        }
      ],
      "stateMutability": "view",
      "type": "function"
    },
    {
      "inputs": [
        {
          "internalType": "address",
          "name": "user",
          "type": "address"
        }
      ],
      "name": "getNonce",
      "outputs": [
        {
          "internalType": "uint256",
          "name": "nonce",
          "type": "uint256"
        }
      ],
      "stateMutability": "view",
      "type": "function"
    },
    {
      "inputs": [
        {
          "internalType": "address",
          "name": "owner",
          "type": "address"
        },
        {
          "internalType": "address",
          "name": "operator",
          "type": "address"
        }
      ],
      "name": "isApprovedForAll",
      "outputs": [
        {
          "internalType": "bool",
          "name": "",
          "type": "bool"
        }
      ],
      "stateMutability": "view",
      "type": "function"
    },
    {
      "inputs": [],
      "name": "metadataIsFrozen",
      "outputs": [
        {
          "internalType": "bool",
          "name": "",
          "type": "bool"
        }
      ],
      "stateMutability": "view",
      "type": "function"
    },
    {
      "inputs": [
        {
          "internalType": "bytes32[]",
          "name": "_merkleProof",
          "type": "bytes32[]"
        },
        {
          "internalType": "uint64",
          "name": "count",
          "type": "uint64"
        }
      ],
      "name": "mintAirdrop",
      "outputs": [],
      "stateMutability": "nonpayable",
      "type": "function"
    },
    {
      "inputs": [
        {
          "internalType": "bytes32[]",
          "name": "_merkleProof",
          "type": "bytes32[]"
        },
        {
          "internalType": "uint64",
          "name": "count",
          "type": "uint64"
        }
      ],
      "name": "mintPresale",
      "outputs": [],
      "stateMutability": "nonpayable",
      "type": "function"
    },
    {
      "inputs": [],
      "name": "mintPrice",
      "outputs": [
        {
          "internalType": "uint256",
          "name": "",
          "type": "uint256"
        }
      ],
      "stateMutability": "view",
      "type": "function"
    },
    {
      "inputs": [
        {
          "internalType": "address",
          "name": "_to",
          "type": "address"
        },
        {
          "internalType": "uint64",
          "name": "count",
          "type": "uint64"
        }
      ],
      "name": "mintTo",
      "outputs": [],
      "stateMutability": "payable",
      "type": "function"
    },
    {
      "inputs": [
        {
          "internalType": "bytes32[]",
          "name": "_merkleProof",
          "type": "bytes32[]"
        },
        {
          "internalType": "uint64",
          "name": "count",
          "type": "uint64"
        }
      ],
      "name": "mintToTeam",
      "outputs": [],
      "stateMutability": "nonpayable",
      "type": "function"
    },
    {
      "inputs": [],
      "name": "name",
      "outputs": [
        {
          "internalType": "string",
          "name": "",
          "type": "string"
        }
      ],
      "stateMutability": "view",
      "type": "function"
    },
    {
      "inputs": [],
      "name": "owner",
      "outputs": [
        {
          "internalType": "address",
          "name": "",
          "type": "address"
        }
      ],
      "stateMutability": "view",
      "type": "function"
    },
    {
      "inputs": [
        {
          "internalType": "uint256",
          "name": "tokenId",
          "type": "uint256"
        }
      ],
      "name": "ownerOf",
      "outputs": [
        {
          "internalType": "address",
          "name": "",
          "type": "address"
        }
      ],
      "stateMutability": "view",
      "type": "function"
    },
    {
      "inputs": [],
      "name": "phase",
      "outputs": [
        {
          "internalType": "enum FFWClubNFT.SalePhase",
          "name": "",
          "type": "uint8"
        }
      ],
      "stateMutability": "view",
      "type": "function"
    },
    {
      "inputs": [
        {
          "internalType": "address",
          "name": "",
          "type": "address"
        }
      ],
      "name": "presaleCounter",
      "outputs": [
        {
          "internalType": "uint64",
          "name": "",
          "type": "uint64"
        }
      ],
      "stateMutability": "view",
      "type": "function"
    },
    {
      "inputs": [
        {
          "internalType": "address",
          "name": "",
          "type": "address"
        }
      ],
      "name": "publicsaleCounter",
      "outputs": [
        {
          "internalType": "uint64",
          "name": "",
          "type": "uint64"
        }
      ],
      "stateMutability": "view",
      "type": "function"
    },
    {
      "inputs": [],
      "name": "renounceOwnership",
      "outputs": [],
      "stateMutability": "nonpayable",
      "type": "function"
    },
    {
      "inputs": [
        {
          "internalType": "address",
          "name": "from",
          "type": "address"
        },
        {
          "internalType": "address",
          "name": "to",
          "type": "address"
        },
        {
          "internalType": "uint256",
          "name": "tokenId",
          "type": "uint256"
        }
      ],
      "name": "safeTransferFrom",
      "outputs": [],
      "stateMutability": "nonpayable",
      "type": "function"
    },
    {
      "inputs": [
        {
          "internalType": "address",
          "name": "from",
          "type": "address"
        },
        {
          "internalType": "address",
          "name": "to",
          "type": "address"
        },
        {
          "internalType": "uint256",
          "name": "tokenId",
          "type": "uint256"
        },
        {
          "internalType": "bytes",
          "name": "_data",
          "type": "bytes"
        }
      ],
      "name": "safeTransferFrom",
      "outputs": [],
      "stateMutability": "nonpayable",
      "type": "function"
    },
    {
      "inputs": [
        {
          "internalType": "bytes32",
          "name": "_root",
          "type": "bytes32"
        }
      ],
      "name": "setAirdropMerkleRoot",
      "outputs": [],
      "stateMutability": "nonpayable",
      "type": "function"
    },
    {
      "inputs": [
        {
          "internalType": "address",
          "name": "operator",
          "type": "address"
        },
        {
          "internalType": "bool",
          "name": "approved",
          "type": "bool"
        }
      ],
      "name": "setApprovalForAll",
      "outputs": [],
      "stateMutability": "nonpayable",
      "type": "function"
    },
    {
      "inputs": [
        {
          "internalType": "string",
          "name": "_baseURI",
          "type": "string"
        }
      ],
      "name": "setBaseURI",
      "outputs": [],
      "stateMutability": "nonpayable",
      "type": "function"
    },
    {
      "inputs": [
        {
          "internalType": "uint16",
          "name": "teamLimit",
          "type": "uint16"
        },
        {
          "internalType": "uint16",
          "name": "airdropLimit",
          "type": "uint16"
        },
        {
          "internalType": "uint16",
          "name": "preSaleLimit",
          "type": "uint16"
        },
        {
          "internalType": "uint16",
          "name": "publicSaleLimit",
          "type": "uint16"
        },
        {
          "internalType": "uint64",
          "name": "totalTeamReserve",
          "type": "uint64"
        },
        {
          "internalType": "uint64",
          "name": "totalAirdropReserve",
          "type": "uint64"
        },
        {
          "internalType": "uint64",
          "name": "totalPresaleReserve",
          "type": "uint64"
        }
      ],
      "name": "setLimits",
      "outputs": [],
      "stateMutability": "nonpayable",
      "type": "function"
    },
    {
      "inputs": [
        {
          "internalType": "bytes32",
          "name": "_teamRoot",
          "type": "bytes32"
        },
        {
          "internalType": "bytes32",
          "name": "_airdropRoot",
          "type": "bytes32"
        },
        {
          "internalType": "bytes32",
          "name": "_whitelistRoot",
          "type": "bytes32"
        }
      ],
      "name": "setMerkleRoots",
      "outputs": [],
      "stateMutability": "nonpayable",
      "type": "function"
    },
    {
      "inputs": [
        {
          "internalType": "uint256",
          "name": "_mintPrice",
          "type": "uint256"
        }
      ],
      "name": "setMintPrice",
      "outputs": [],
      "stateMutability": "nonpayable",
      "type": "function"
    },
    {
      "inputs": [
        {
          "internalType": "enum FFWClubNFT.SalePhase",
          "name": "_phase",
          "type": "uint8"
        }
      ],
      "name": "setPhase",
      "outputs": [],
      "stateMutability": "nonpayable",
      "type": "function"
    },
    {
      "inputs": [
        {
          "internalType": "bytes32",
          "name": "_root",
          "type": "bytes32"
        }
      ],
      "name": "setTeamMerkleRoot",
      "outputs": [],
      "stateMutability": "nonpayable",
      "type": "function"
    },
    {
      "inputs": [
        {
          "internalType": "bytes32",
          "name": "_root",
          "type": "bytes32"
        }
      ],
      "name": "setWhitelistMerkleRoot",
      "outputs": [],
      "stateMutability": "nonpayable",
      "type": "function"
    },
    {
      "inputs": [],
      "name": "settingsIsFrezen",
      "outputs": [
        {
          "internalType": "bool",
          "name": "",
          "type": "bool"
        }
      ],
      "stateMutability": "view",
      "type": "function"
    },
    {
      "inputs": [
        {
          "internalType": "bytes4",
          "name": "interfaceId",
          "type": "bytes4"
        }
      ],
      "name": "supportsInterface",
      "outputs": [
        {
          "internalType": "bool",
          "name": "",
          "type": "bool"
        }
      ],
      "stateMutability": "view",
      "type": "function"
    },
    {
      "inputs": [],
      "name": "symbol",
      "outputs": [
        {
          "internalType": "string",
          "name": "",
          "type": "string"
        }
      ],
      "stateMutability": "view",
      "type": "function"
    },
    {
      "inputs": [
        {
          "internalType": "address",
          "name": "",
          "type": "address"
        }
      ],
      "name": "teamCounter",
      "outputs": [
        {
          "internalType": "uint64",
          "name": "",
          "type": "uint64"
        }
      ],
      "stateMutability": "view",
      "type": "function"
    },
    {
      "inputs": [],
      "name": "teamMerkleRoot",
      "outputs": [
        {
          "internalType": "bytes32",
          "name": "",
          "type": "bytes32"
        }
      ],
      "stateMutability": "view",
      "type": "function"
    },
    {
      "inputs": [
        {
          "internalType": "uint256",
          "name": "tokenId",
          "type": "uint256"
        }
      ],
      "name": "tokenURI",
      "outputs": [
        {
          "internalType": "string",
          "name": "",
          "type": "string"
        }
      ],
      "stateMutability": "view",
      "type": "function"
    },
    {
      "inputs": [],
      "name": "totalSupply",
      "outputs": [
        {
          "internalType": "uint256",
          "name": "",
          "type": "uint256"
        }
      ],
      "stateMutability": "view",
      "type": "function"
    },
    {
      "inputs": [
        {
          "internalType": "address",
          "name": "from",
          "type": "address"
        },
        {
          "internalType": "address",
          "name": "to",
          "type": "address"
        },
        {
          "internalType": "uint256",
          "name": "tokenId",
          "type": "uint256"
        }
      ],
      "name": "transferFrom",
      "outputs": [],
      "stateMutability": "nonpayable",
      "type": "function"
    },
    {
      "inputs": [
        {
          "internalType": "address",
          "name": "newOwner",
          "type": "address"
        }
      ],
      "name": "transferOwnership",
      "outputs": [],
      "stateMutability": "nonpayable",
      "type": "function"
    },
    {
      "inputs": [],
      "name": "whitelistMerkleRoot",
      "outputs": [
        {
          "internalType": "bytes32",
          "name": "",
          "type": "bytes32"
        }
      ],
      "stateMutability": "view",
      "type": "function"
    }
  ],
  "bytecode": "0x6008805460ff19169055601680546001600160c01b0316601960c31b179055601780547701f400640014001400000000000007d000000000000000c86001600160c81b0319909116179055601880546001600160401b0319166127101790556658d15e1762800060195560a06040819052600060808190526200008591601a91620003a9565b50601b805461ffff191690553480156200009e57600080fd5b5060405162003e9938038062003e99833981016040819052620000c1916200044f565b6040518060400160405280601781526020017f467572727920466f7820576f6f647369646520436c75620000000000000000008152506040518060400160405280600781526020016623232ba1b63ab160c91b815250838282816002908051906020019062000132929190620003a9565b50805162000148906003906020840190620003a9565b50506000805550620001636200015d620001cd565b620001e9565b600e80546001600160a01b0319166001600160a01b03831617905562000196600d6200023b602090811b6200215117901c565b620001a18362000244565b5050601880546001600160401b0319166001600160401b03939093169290921790915550620004de9050565b6000620001e4620002a860201b6200215a1760201c565b905090565b600b80546001600160a01b038381166001600160a01b0319831681179093556040519116919082907f8be0079c531659141344cd1fd0a4f28419497f9722a3daafe3b4186f6b6457e090600090a35050565b80546001019055565b60085460ff16156200028d5760405162461bcd60e51b815260206004820152600e60248201526d185b1c9958591e481a5b9a5d195960921b604482015260640160405180910390fd5b620002988162000307565b506008805460ff19166001179055565b6000333014156200030157600080368080601f0160208091040260200160405190810160405280939291908181526020018383808284376000920191909152505050503601516001600160a01b03169150620003049050565b50335b90565b6040518060800160405280604f815260200162003e4a604f9139805160209182012082519282019290922060408051808201825260018152603160f81b90840152805180840194909452838101919091527fc89efdaa54c0f20c7adf612882df0950f5a951637e0307cdcb4c672f298b8bc660608401523060808401524660a0808501919091528151808503909101815260c090930190528151910120600955565b828054620003b790620004a1565b90600052602060002090601f016020900481019282620003db576000855562000426565b82601f10620003f657805160ff191683800117855562000426565b8280016001018555821562000426579182015b828111156200042657825182559160200191906001019062000409565b506200043492915062000438565b5090565b5b8082111562000434576000815560010162000439565b6000806040838503121562000462578182fd5b82516001600160a01b038116811462000479578283fd5b60208401519092506001600160401b038116811462000496578182fd5b809150509250929050565b600181811c90821680620004b657607f821691505b60208210811415620004d857634e487b7160e01b600052602260045260246000fd5b50919050565b61395c80620004ee6000396000f3fe60806040526004361061034f5760003560e01c8063724ff8ba116101c6578063bdcba9ef116100f7578063d8e896ee11610095578063f2fde38b1161006f578063f2fde38b146109fd578063f4a0a52814610a1d578063f80fe34514610a3d578063fb4bcd4f14610a5f57600080fd5b8063d8e896ee1461099b578063dc47dced146109bd578063e985e9c5146109dd57600080fd5b8063c87b56dd116100d1578063c87b56dd14610937578063cf880fea14610957578063d111515d14610971578063d547cfb71461098657600080fd5b8063bdcba9ef146108c1578063c03afb59146108f7578063c4d083111461091757600080fd5b8063a22cb46511610164578063aced876d1161013e578063aced876d14610833578063b1c9fe6e14610853578063b88d4fde14610881578063bd32fb66146108a157600080fd5b8063a22cb465146107e7578063a5ce30d214610807578063aa98e0c61461081d57600080fd5b806382a19411116101a057806382a194111461076b5780638da5cb5b146107a157806393d756aa146107bf57806395d89b41146107d257600080fd5b8063724ff8ba146106f557806377fc393e1461072b5780638087577a1461074b57600080fd5b80632fc2e838116102a0578063601258d81161023e5780636817c76c116102185780636817c76c146106955780636c0360eb146106ab57806370a08231146106c0578063715018a6146106e057600080fd5b8063601258d81461061d5780636352211e146106535780636588717e1461067357600080fd5b80633ea98bf91161027a5780633ea98bf9146105a957806342842e0e146105c857806355f804b3146105e85780635a22599d1461060857600080fd5b80632fc2e8381461052957806332cb6b0c1461055e5780633408e4701461059657600080fd5b80630c53c51c1161030d57806320379ee5116102e757806320379ee5146104a857806323b872dd146104bd57806329140819146104dd5780632d0335ab146104f357600080fd5b80630c53c51c146104455780630f7e59701461045857806318160ddd1461048557600080fd5b8062f9ae541461035457806301ffc9a714610376578063046181e2146103ab57806306fdde03146103cb578063081812fc146103ed578063095ea7b314610425575b600080fd5b34801561036057600080fd5b5061037461036f3660046133cf565b610a7f565b005b34801561038257600080fd5b506103966103913660046133fa565b610af1565b60405190151581526020015b60405180910390f35b3480156103b757600080fd5b506103746103c6366004613313565b610b43565b3480156103d757600080fd5b506103e0610cfb565b6040516103a29190613657565b3480156103f957600080fd5b5061040d6104083660046133b7565b610d8d565b6040516001600160a01b0390911681526020016103a2565b34801561043157600080fd5b506103746104403660046131f2565b610dd1565b6103e0610453366004613178565b610e6c565b34801561046457600080fd5b506103e0604051806040016040528060018152602001603160f81b81525081565b34801561049157600080fd5b50600154600054035b6040519081526020016103a2565b3480156104b457600080fd5b5060095461049a565b3480156104c957600080fd5b506103746104d836600461309e565b611056565b3480156104e957600080fd5b5061049a60115481565b3480156104ff57600080fd5b5061049a61050e36600461304a565b6001600160a01b03166000908152600a602052604090205490565b34801561053557600080fd5b5060175461054b90600160901b900461ffff1681565b60405161ffff90911681526020016103a2565b34801561056a57600080fd5b5060185461057e906001600160401b031681565b6040516001600160401b0390911681526020016103a2565b3480156105a257600080fd5b504661049a565b3480156105b557600080fd5b50601b5461039690610100900460ff1681565b3480156105d457600080fd5b506103746105e336600461309e565b611061565b3480156105f457600080fd5b5061037461060336600461346d565b61107c565b34801561061457600080fd5b5061037461112b565b34801561062957600080fd5b5061057e61063836600461304a565b6015602052600090815260409020546001600160401b031681565b34801561065f57600080fd5b5061040d61066e3660046133b7565b6111dd565b34801561067f57600080fd5b5060175461054b90600160b01b900461ffff1681565b3480156106a157600080fd5b5061049a60195481565b3480156106b757600080fd5b506103e06111ef565b3480156106cc57600080fd5b5061049a6106db36600461304a565b61127d565b3480156106ec57600080fd5b506103746112cb565b34801561070157600080fd5b5061057e61071036600461304a565b6012602052600090815260409020546001600160401b031681565b34801561073757600080fd5b50610374610746366004613251565b611320565b34801561075757600080fd5b506103746107663660046134b2565b61143b565b34801561077757600080fd5b5061057e61078636600461304a565b6013602052600090815260409020546001600160401b031681565b3480156107ad57600080fd5b50600b546001600160a01b031661040d565b6103746107cd36600461321d565b611585565b3480156107de57600080fd5b506103e0611795565b3480156107f357600080fd5b50610374610802366004613147565b6117a4565b34801561081357600080fd5b5061049a60105481565b34801561082957600080fd5b5061049a600f5481565b34801561083f57600080fd5b5061037461084e366004613313565b611877565b34801561085f57600080fd5b5060175461087490600160c01b900460ff1681565b6040516103a2919061366a565b34801561088d57600080fd5b5061037461089c3660046130de565b611a23565b3480156108ad57600080fd5b506103746108bc3660046133b7565b611a74565b3480156108cd57600080fd5b5061057e6108dc36600461304a565b6014602052600090815260409020546001600160401b031681565b34801561090357600080fd5b5061037461091236600461344e565b611ac2565b34801561092357600080fd5b50610374610932366004613313565b611be5565b34801561094357600080fd5b506103e06109523660046133b7565b611da0565b34801561096357600080fd5b50601b546103969060ff1681565b34801561097d57600080fd5b50610374611e25565b34801561099257600080fd5b506103e0611ed0565b3480156109a757600080fd5b5060175461054b90600160801b900461ffff1681565b3480156109c957600080fd5b506103746109d83660046133b7565b611edd565b3480156109e957600080fd5b506103966109f8366004613066565b611f2b565b348015610a0957600080fd5b50610374610a1836600461304a565b611ffb565b348015610a2957600080fd5b50610374610a383660046133b7565b6120b5565b348015610a4957600080fd5b5060175461054b90600160a01b900461ffff1681565b348015610a6b57600080fd5b50610374610a7a3660046133b7565b612103565b610a876121b7565b6001600160a01b0316610aa2600b546001600160a01b031690565b6001600160a01b031614610ad15760405162461bcd60e51b8152600401610ac8906136d4565b60405180910390fd5b610ada83611edd565b610ae382612103565b610aec81611a74565b505050565b60006001600160e01b031982166380ac58cd60e01b1480610b2257506001600160e01b03198216635b5e139f60e01b145b80610b3d57506301ffc9a760e01b6001600160e01b03198316145b92915050565b601754600160901b900461ffff168160136000610b5e6121b7565b6001600160a01b03168152602081019190915260400160002054610b8b91906001600160401b0316613774565b6001600160401b03161115610bb25760405162461bcd60e51b8152600401610ac890613692565b6017546016546001600160401b0391821691610bd8918491600160401b90910416613774565b6001600160401b03161115610c3d5760405162461bcd60e51b815260206004820152602560248201527f796f752061726520657863656564696e6720746f74616c2061697264726f70206044820152641b1a5b5a5d60da1b6064820152608401610ac8565b8060136000610c4a6121b7565b6001600160a01b03168152602081019190915260400160009081208054909190610c7e9084906001600160401b0316613774565b92506101000a8154816001600160401b0302191690836001600160401b0316021790555080601660088282829054906101000a90046001600160401b0316610cc69190613774565b92506101000a8154816001600160401b0302191690836001600160401b03160217905550610cf760105483836121c6565b5050565b606060028054610d0a9061380c565b80601f0160208091040260200160405190810160405280929190818152602001828054610d369061380c565b8015610d835780601f10610d5857610100808354040283529160200191610d83565b820191906000526020600020905b815481529060010190602001808311610d6657829003601f168201915b5050505050905090565b6000610d9882612225565b610db5576040516333d1c03960e21b815260040160405180910390fd5b506000908152600660205260409020546001600160a01b031690565b6000610ddc826111dd565b9050806001600160a01b0316836001600160a01b03161415610e115760405163250fdee360e21b815260040160405180910390fd5b806001600160a01b0316610e236121b7565b6001600160a01b031614158015610e435750610e41816109f86121b7565b155b15610e61576040516367d9dca160e11b815260040160405180910390fd5b610aec838383612250565b60408051606081810183526001600160a01b0388166000818152600a602090815290859020548452830152918101869052610eaa87828787876122ac565b610f005760405162461bcd60e51b815260206004820152602160248201527f5369676e657220616e64207369676e617475726520646f206e6f74206d6174636044820152600d60fb1b6064820152608401610ac8565b6001600160a01b0387166000908152600a6020526040902054610f2490600161239c565b6001600160a01b0388166000908152600a60205260409081902091909155517f5845892132946850460bff5a0083f71031bc5bf9aadcd40f1de79423eac9b10b90610f7490899033908a906135e5565b60405180910390a1600080306001600160a01b0316888a604051602001610f9c92919061357f565b60408051601f1981840301815290829052610fb691613563565b6000604051808303816000865af19150503d8060008114610ff3576040519150601f19603f3d011682016040523d82523d6000602084013e610ff8565b606091505b50915091508161104a5760405162461bcd60e51b815260206004820152601c60248201527f46756e6374696f6e2063616c6c206e6f74207375636365737366756c000000006044820152606401610ac8565b98975050505050505050565b610aec8383836123a8565b610aec83838360405180602001604052806000815250611a23565b6110846121b7565b6001600160a01b031661109f600b546001600160a01b031690565b6001600160a01b0316146110c55760405162461bcd60e51b8152600401610ac8906136d4565b601b5460ff16156111185760405162461bcd60e51b815260206004820152601e60248201527f4d65746164617461206973207065726d616e656e746c792066726f7a656e00006044820152606401610ac8565b8051610cf790601a906020840190612e9e565b6111336121b7565b6001600160a01b031661114e600b546001600160a01b031690565b6001600160a01b0316146111745760405162461bcd60e51b8152600401610ac8906136d4565b601b54610100900460ff16156111cc5760405162461bcd60e51b815260206004820152601a60248201527f53657474696e677320697320616c72656164792066726f7a656e0000000000006044820152606401610ac8565b601b805461ff001916610100179055565b60006111e8826125b8565b5192915050565b601a80546111fc9061380c565b80601f01602080910402602001604051908101604052809291908181526020018280546112289061380c565b80156112755780601f1061124a57610100808354040283529160200191611275565b820191906000526020600020905b81548152906001019060200180831161125857829003601f168201915b505050505081565b60006001600160a01b0382166112a6576040516323d3ad8160e21b815260040160405180910390fd5b506001600160a01b03166000908152600560205260409020546001600160401b031690565b6112d36121b7565b6001600160a01b03166112ee600b546001600160a01b031690565b6001600160a01b0316146113145760405162461bcd60e51b8152600401610ac8906136d4565b61131e60006126d2565b565b6113286121b7565b6001600160a01b0316611343600b546001600160a01b031690565b6001600160a01b0316146113695760405162461bcd60e51b8152600401610ac8906136d4565b80518251146113c55760405162461bcd60e51b815260206004820152602260248201527f50617965657320616e6420616d6f756e7473206c656e677468206d69736d61746044820152610c6d60f31b6064820152608401610ac8565b60005b8251811015610aec576114298382815181106113f457634e487b7160e01b600052603260045260246000fd5b602002602001015183838151811061141c57634e487b7160e01b600052603260045260246000fd5b6020026020010151612724565b8061143381613847565b9150506113c8565b6114436121b7565b6001600160a01b031661145e600b546001600160a01b031690565b6001600160a01b0316146114845760405162461bcd60e51b8152600401610ac8906136d4565b601b54610100900460ff16156114dc5760405162461bcd60e51b815260206004820152601f60248201527f53657474696e677320617265207065726d616e656e746c792066726f7a656e006044820152606401610ac8565b60178054601680546001600160c01b0316600160c01b6001600160401b039788160217905592841663ffffffff60801b19909316600160801b61ffff998a160261ffff60901b191617600160901b978916979097029690961763ffffffff60a01b1916600160a01b9588169590950261ffff60b01b191694909417600160b01b9390961692909202949094176001600160801b03191617600160401b9190931602919091179055565b806001600160401b0316348160195461159e91906137aa565b11156115ec5760405162461bcd60e51b815260206004820152601f60248201527f45746865722076616c75652073656e74206973206e6f7420636f7272656374006044820152606401610ac8565b6002601754600160c01b900460ff16600281111561161a57634e487b7160e01b600052602160045260246000fd5b146116785760405162461bcd60e51b815260206004820152602860248201527f436f6e7472616374206973206e6f7420796574206f70656e20666f72207075626044820152676c69632073616c6560c01b6064820152608401610ac8565b601754600160b01b900461ffff1682601560006116936121b7565b6001600160a01b031681526020810191909152604001600020546116c091906001600160401b0316613774565b6001600160401b031611156117265760405162461bcd60e51b815260206004820152602660248201527f596f752061726520657863656564696e67206d6178206c696d697420706572206044820152651dd85b1b195d60d21b6064820152608401610ac8565b81601560006117336121b7565b6001600160a01b031681526020810191909152604001600090812080549091906117679084906001600160401b0316613774565b92506101000a8154816001600160401b0302191690836001600160401b03160217905550610aec83836127ba565b606060038054610d0a9061380c565b6117ac6121b7565b6001600160a01b0316826001600160a01b031614156117de5760405163b06307db60e01b815260040160405180910390fd5b80600760006117eb6121b7565b6001600160a01b03908116825260208083019390935260409182016000908120918716808252919093529120805460ff19169215159290921790915561182f6121b7565b6001600160a01b03167f17307eab39ab6107e8899845ad3d59bd9653f200f220920489ca2b5937696c318360405161186b911515815260200190565b60405180910390a35050565b601754600160801b900461ffff1681601260006118926121b7565b6001600160a01b031681526020810191909152604001600020546118bf91906001600160401b0316613774565b6001600160401b031611156118e65760405162461bcd60e51b8152600401610ac890613692565b6016546001600160401b03600160c01b820481169161190791849116613774565b6001600160401b031611156119695760405162461bcd60e51b815260206004820152602260248201527f796f752061726520657863656564696e6720746f74616c207465616d206c696d6044820152611a5d60f21b6064820152608401610ac8565b80601260006119766121b7565b6001600160a01b031681526020810191909152604001600090812080549091906119aa9084906001600160401b0316613774565b92506101000a8154816001600160401b0302191690836001600160401b0316021790555080601660008282829054906101000a90046001600160401b03166119f29190613774565b92506101000a8154816001600160401b0302191690836001600160401b03160217905550610cf760115483836121c6565b611a2e8484846123a8565b6001600160a01b0383163b15158015611a505750611a4e84848484612832565b155b15611a6e576040516368d2bf6b60e11b815260040160405180910390fd5b50505050565b611a7c6121b7565b6001600160a01b0316611a97600b546001600160a01b031690565b6001600160a01b031614611abd5760405162461bcd60e51b8152600401610ac8906136d4565b600f55565b611aca6121b7565b6001600160a01b0316611ae5600b546001600160a01b031690565b6001600160a01b031614611b0b5760405162461bcd60e51b8152600401610ac8906136d4565b601754600160c01b900460ff166002811115611b3757634e487b7160e01b600052602160045260246000fd5b60ff16816002811115611b5a57634e487b7160e01b600052602160045260246000fd5b60ff1611611baa5760405162461bcd60e51b815260206004820152601760248201527f63616e206f6e6c7920616476616e6365207068617365730000000000000000006044820152606401610ac8565b6017805482919060ff60c01b1916600160c01b836002811115611bdd57634e487b7160e01b600052602160045260246000fd5b021790555050565b601754600160a01b900461ffff168160146000611c006121b7565b6001600160a01b03168152602081019190915260400160002054611c2d91906001600160401b0316613774565b6001600160401b03161115611c545760405162461bcd60e51b8152600401610ac890613692565b6017546016546001600160401b03600160401b909204821691611c81918491600160801b90910416613774565b6001600160401b03161115611ce65760405162461bcd60e51b815260206004820152602560248201527f796f752061726520657863656564696e6720746f74616c2070726573616c65206044820152641b1a5b5a5d60da1b6064820152608401610ac8565b8060146000611cf36121b7565b6001600160a01b03168152602081019190915260400160009081208054909190611d279084906001600160401b0316613774565b92506101000a8154816001600160401b0302191690836001600160401b0316021790555080601660108282829054906101000a90046001600160401b0316611d6f9190613774565b92506101000a8154816001600160401b0302191690836001600160401b03160217905550610cf7600f5483836121c6565b6060611dab82612225565b611dc857604051630a14c4b560e41b815260040160405180910390fd5b6000611dd261292f565b9050805160001415611df35760405180602001604052806000815250611e1e565b80611dfd8461293e565b604051602001611e0e9291906135b6565b6040516020818303038152906040525b9392505050565b611e2d6121b7565b6001600160a01b0316611e48600b546001600160a01b031690565b6001600160a01b031614611e6e5760405162461bcd60e51b8152600401610ac8906136d4565b601b5460ff1615611ec15760405162461bcd60e51b815260206004820152601a60248201527f4d6574616461746120697320616c72656164792066726f7a656e0000000000006044820152606401610ac8565b601b805460ff19166001179055565b600c80546111fc9061380c565b611ee56121b7565b6001600160a01b0316611f00600b546001600160a01b031690565b6001600160a01b031614611f265760405162461bcd60e51b8152600401610ac8906136d4565b601155565b600e5460405163c455279160e01b81526001600160a01b03848116600483015260009281169190841690829063c45527919060240160206040518083038186803b158015611f7857600080fd5b505afa158015611f8c573d6000803e3d6000fd5b505050506040513d601f19601f82011682018060405250810190611fb09190613432565b6001600160a01b03161415611fc9576001915050610b3d565b6001600160a01b0380851660009081526007602090815260408083209387168352929052205460ff165b949350505050565b6120036121b7565b6001600160a01b031661201e600b546001600160a01b031690565b6001600160a01b0316146120445760405162461bcd60e51b8152600401610ac8906136d4565b6001600160a01b0381166120a95760405162461bcd60e51b815260206004820152602660248201527f4f776e61626c653a206e6577206f776e657220697320746865207a65726f206160448201526564647265737360d01b6064820152608401610ac8565b6120b2816126d2565b50565b6120bd6121b7565b6001600160a01b03166120d8600b546001600160a01b031690565b6001600160a01b0316146120fe5760405162461bcd60e51b8152600401610ac8906136d4565b601955565b61210b6121b7565b6001600160a01b0316612126600b546001600160a01b031690565b6001600160a01b03161461214c5760405162461bcd60e51b8152600401610ac8906136d4565b601055565b80546001019055565b6000333014156121b157600080368080601f0160208091040260200160405190810160405280939291908181526020018383808284376000920191909152505050503601516001600160a01b031691506121b49050565b50335b90565b60006121c161215a565b905090565b6121ce612a57565b6121d88383612ad2565b6122145760405162461bcd60e51b815260206004820152600d60248201526c24b73b30b634b210383937b7b360991b6044820152606401610ac8565b610aec61221f6121b7565b826127ba565b6000805482108015610b3d575050600090815260046020526040902054600160e01b900460ff161590565b60008281526006602052604080822080546001600160a01b0319166001600160a01b0387811691821790925591518593918516917f8c5be1e5ebec7d5bd14f71427d1e84f3dd0314c0f7b2291e5b200ac8c7c3b92591a4505050565b60006001600160a01b0386166123125760405162461bcd60e51b815260206004820152602560248201527f4e61746976654d6574615472616e73616374696f6e3a20494e56414c49445f5360448201526424a3a722a960d91b6064820152608401610ac8565b600161232561232087612b70565b612bed565b6040805160008152602081018083529290925260ff851690820152606081018690526080810185905260a0016020604051602081039080840390855afa158015612373573d6000803e3d6000fd5b505050602060405103516001600160a01b0316866001600160a01b031614905095945050505050565b6000611e1e828461375c565b60006123b3826125b8565b9050836001600160a01b031681600001516001600160a01b0316146123ea5760405162a1148160e81b815260040160405180910390fd5b6000846001600160a01b03166123fe6121b7565b6001600160a01b0316148061241a575061241a856109f86121b7565b8061244557506124286121b7565b6001600160a01b031661243a84610d8d565b6001600160a01b0316145b90508061246557604051632ce44b5f60e11b815260040160405180910390fd5b6001600160a01b03841661248c57604051633a954ecd60e21b815260040160405180910390fd5b61249860008487612250565b6001600160a01b038581166000908152600560209081526040808320805467ffffffffffffffff198082166001600160401b0392831660001901831617909255898616808652838620805493841693831660019081018416949094179055898652600490945282852080546001600160e01b031916909417600160a01b4290921691909102178355870180845292208054919390911661256c57600054821461256c57805460208601516001600160401b0316600160a01b026001600160e01b03199091166001600160a01b038a16171781555b50505082846001600160a01b0316866001600160a01b03167fddf252ad1be2c89b69c2b068fc378daa952ba7f163c4a11628f55a4df523b3ef60405160405180910390a45b5050505050565b6040805160608101825260008082526020820181905291810191909152816000548110156126b957600081815260046020908152604091829020825160608101845290546001600160a01b0381168252600160a01b81046001600160401b031692820192909252600160e01b90910460ff161515918101829052906126b75780516001600160a01b03161561264e579392505050565b5060001901600081815260046020908152604091829020825160608101845290546001600160a01b038116808352600160a01b82046001600160401b031693830193909352600160e01b900460ff16151592810192909252156126b2579392505050565b61264e565b505b604051636f96cda160e11b815260040160405180910390fd5b600b80546001600160a01b038381166001600160a01b0319831681179093556040519116919082907f8be0079c531659141344cd1fd0a4f28419497f9722a3daafe3b4186f6b6457e090600090a35050565b6000826001600160a01b03168260405160006040518083038185875af1925050503d8060008114612771576040519150601f19603f3d011682016040523d82523d6000602084013e612776565b606091505b5050905080610aec5760405162461bcd60e51b815260206004820152601060248201526f2a3930b739b332b9103330b4b632b21760811b6044820152606401610ac8565b6018546001600160401b039081169082166127d460005490565b6127de919061375c565b111561281f5760405162461bcd60e51b815260206004820152601060248201526f537570706c7920657863656564696e6760801b6044820152606401610ac8565b610cf782826001600160401b0316612c1d565b6000836001600160a01b031663150b7a0261284b6121b7565b8786866040518563ffffffff1660e01b815260040161286d949392919061361a565b602060405180830381600087803b15801561288757600080fd5b505af19250505080156128b7575060408051601f3d908101601f191682019092526128b491810190613416565b60015b612912573d8080156128e5576040519150601f19603f3d011682016040523d82523d6000602084013e6128ea565b606091505b50805161290a576040516368d2bf6b60e11b815260040160405180910390fd5b805181602001fd5b6001600160e01b031916630a85bd0160e11b149050949350505050565b6060601a8054610d0a9061380c565b6060816129625750506040805180820190915260018152600360fc1b602082015290565b8160005b811561298c578061297681613847565b91506129859050600a83613796565b9150612966565b6000816001600160401b038111156129b457634e487b7160e01b600052604160045260246000fd5b6040519080825280601f01601f1916602001820160405280156129de576020820181803683370190505b5090505b8415611ff3576129f36001836137c9565b9150612a00600a86613862565b612a0b90603061375c565b60f81b818381518110612a2e57634e487b7160e01b600052603260045260246000fd5b60200101906001600160f81b031916908160001a905350612a50600a86613796565b94506129e2565b6001601754600160c01b900460ff166002811115612a8557634e487b7160e01b600052602160045260246000fd5b1461131e5760405162461bcd60e51b815260206004820152601d60248201527f436f6e7472616374206e6f7420696e2070726573616c652070686173650000006044820152606401610ac8565b600080612add6121b7565b604051602001612b05919060609190911b6bffffffffffffffffffffffff1916815260140190565b604051602081830303815290604052805190602001209050612b28838583612c37565b612b665760405162461bcd60e51b815260206004820152600f60248201526e24b731b7b93932b1ba10383937b7b360891b6044820152606401610ac8565b5060019392505050565b60006040518060800160405280604381526020016138e46043913980516020918201208351848301516040808701518051908601209051612bd0950193845260208401929092526001600160a01b03166040830152606082015260800190565b604051602081830303815290604052805190602001209050919050565b6000612bf860095490565b60405161190160f01b6020820152602281019190915260428101839052606201612bd0565b610cf7828260405180602001604052806000815250612c4d565b600082612c448584612c5a565b14949350505050565b610aec8383836001612cdc565b600081815b8451811015612cd4576000858281518110612c8a57634e487b7160e01b600052603260045260246000fd5b60200260200101519050808311612cb05760008381526020829052604090209250612cc1565b600081815260208490526040902092505b5080612ccc81613847565b915050612c5f565b509392505050565b6000546001600160a01b038516612d0557604051622e076360e81b815260040160405180910390fd5b83612d235760405163b562e8dd60e01b815260040160405180910390fd5b6001600160a01b038516600081815260056020908152604080832080546001600160801b031981166001600160401b038083168c018116918217600160401b67ffffffffffffffff1990941690921783900481168c01811690920217909155858452600490925290912080546001600160e01b031916909217600160a01b429092169190910217905580808501838015612dc657506001600160a01b0387163b15155b15612e4f575b60405182906001600160a01b038916906000907fddf252ad1be2c89b69c2b068fc378daa952ba7f163c4a11628f55a4df523b3ef908290a4612e176000888480600101955088612832565b612e34576040516368d2bf6b60e11b815260040160405180910390fd5b80821415612dcc578260005414612e4a57600080fd5b612e95565b5b6040516001830192906001600160a01b038916906000907fddf252ad1be2c89b69c2b068fc378daa952ba7f163c4a11628f55a4df523b3ef908290a480821415612e50575b506000556125b1565b828054612eaa9061380c565b90600052602060002090601f016020900481019282612ecc5760008555612f12565b82601f10612ee557805160ff1916838001178555612f12565b82800160010185558215612f12579182015b82811115612f12578251825591602001919060010190612ef7565b50612f1e929150612f22565b5090565b5b80821115612f1e5760008155600101612f23565b60006001600160401b03831115612f5057612f506138a2565b612f63601f8401601f1916602001613709565b9050828152838383011115612f7757600080fd5b828260208301376000602084830101529392505050565b600082601f830112612f9e578081fd5b81356020612fb3612fae83613739565b613709565b80838252828201915082860187848660051b8901011115612fd2578586fd5b855b85811015612ff057813584529284019290840190600101612fd4565b5090979650505050505050565b600082601f83011261300d578081fd5b611e1e83833560208501612f37565b803561ffff8116811461302e57600080fd5b919050565b80356001600160401b038116811461302e57600080fd5b60006020828403121561305b578081fd5b8135611e1e816138b8565b60008060408385031215613078578081fd5b8235613083816138b8565b91506020830135613093816138b8565b809150509250929050565b6000806000606084860312156130b2578081fd5b83356130bd816138b8565b925060208401356130cd816138b8565b929592945050506040919091013590565b600080600080608085870312156130f3578081fd5b84356130fe816138b8565b9350602085013561310e816138b8565b92506040850135915060608501356001600160401b0381111561312f578182fd5b61313b87828801612ffd565b91505092959194509250565b60008060408385031215613159578182fd5b8235613164816138b8565b915060208301358015158114613093578182fd5b600080600080600060a0868803121561318f578283fd5b853561319a816138b8565b945060208601356001600160401b038111156131b4578384fd5b6131c088828901612ffd565b9450506040860135925060608601359150608086013560ff811681146131e4578182fd5b809150509295509295909350565b60008060408385031215613204578182fd5b823561320f816138b8565b946020939093013593505050565b6000806040838503121561322f578182fd5b823561323a816138b8565b915061324860208401613033565b90509250929050565b60008060408385031215613263578182fd5b82356001600160401b0380821115613279578384fd5b818501915085601f83011261328c578384fd5b8135602061329c612fae83613739565b8083825282820191508286018a848660051b89010111156132bb578889fd5b8896505b848710156132e65780356132d2816138b8565b8352600196909601959183019183016132bf565b50965050860135925050808211156132fc578283fd5b5061330985828601612f8e565b9150509250929050565b60008060408385031215613325578182fd5b82356001600160401b0381111561333a578283fd5b8301601f8101851361334a578283fd5b8035602061335a612fae83613739565b80838252828201915082850189848660051b8801011115613379578788fd5b8795505b8486101561339b57803583526001959095019491830191830161337d565b5095506133ab9050868201613033565b93505050509250929050565b6000602082840312156133c8578081fd5b5035919050565b6000806000606084860312156133e3578081fd5b505081359360208301359350604090920135919050565b60006020828403121561340b578081fd5b8135611e1e816138cd565b600060208284031215613427578081fd5b8151611e1e816138cd565b600060208284031215613443578081fd5b8151611e1e816138b8565b60006020828403121561345f578081fd5b813560038110611e1e578182fd5b60006020828403121561347e578081fd5b81356001600160401b03811115613493578182fd5b8201601f810184136134a3578182fd5b611ff384823560208401612f37565b600080600080600080600060e0888a0312156134cc578485fd5b6134d58861301c565b96506134e36020890161301c565b95506134f16040890161301c565b94506134ff6060890161301c565b935061350d60808901613033565b925061351b60a08901613033565b915061352960c08901613033565b905092959891949750929550565b6000815180845261354f8160208601602086016137e0565b601f01601f19169290920160200192915050565b600082516135758184602087016137e0565b9190910192915050565b600083516135918184602088016137e0565b60609390931b6bffffffffffffffffffffffff19169190920190815260140192915050565b600083516135c88184602088016137e0565b8351908301906135dc8183602088016137e0565b01949350505050565b6001600160a01b0384811682528316602082015260606040820181905260009061361190830184613537565b95945050505050565b6001600160a01b038581168252841660208201526040810183905260806060820181905260009061364d90830184613537565b9695505050505050565b602081526000611e1e6020830184613537565b602081016003831061368c57634e487b7160e01b600052602160045260246000fd5b91905290565b60208082526022908201527f596f752061726520657863656564696e67206c696d6974207065722077616c6c604082015261195d60f21b606082015260800190565b6020808252818101527f4f776e61626c653a2063616c6c6572206973206e6f7420746865206f776e6572604082015260600190565b604051601f8201601f191681016001600160401b0381118282101715613731576137316138a2565b604052919050565b60006001600160401b03821115613752576137526138a2565b5060051b60200190565b6000821982111561376f5761376f613876565b500190565b60006001600160401b038083168185168083038211156135dc576135dc613876565b6000826137a5576137a561388c565b500490565b60008160001904831182151516156137c4576137c4613876565b500290565b6000828210156137db576137db613876565b500390565b60005b838110156137fb5781810151838201526020016137e3565b83811115611a6e5750506000910152565b600181811c9082168061382057607f821691505b6020821081141561384157634e487b7160e01b600052602260045260246000fd5b50919050565b600060001982141561385b5761385b613876565b5060010190565b6000826138715761387161388c565b500690565b634e487b7160e01b600052601160045260246000fd5b634e487b7160e01b600052601260045260246000fd5b634e487b7160e01b600052604160045260246000fd5b6001600160a01b03811681146120b257600080fd5b6001600160e01b0319811681146120b257600080fdfe4d6574615472616e73616374696f6e2875696e74323536206e6f6e63652c616464726573732066726f6d2c62797465732066756e6374696f6e5369676e617475726529a2646970667358221220a7da0211c2f70c207e679131cefee86570c6e4af49abf5a7d02e10229a5df57564736f6c63430008040033454950373132446f6d61696e28737472696e67206e616d652c737472696e672076657273696f6e2c6164647265737320766572696679696e67436f6e74726163742c627974657333322073616c7429",
  "linkReferences": {},
  "deployedLinkReferences": {}
}