{
  "_format": "hh-sol-artifact-1",
  "contractName": "FFWClubNFT",
  "sourceName": "contracts/FFWClub-NFT.sol",
  "abi": [
    {
      "inputs": [
        {
          "internalType": "address",
          "name": "_proxyRegistryAddress",
          "type": "address"
        },
        {
          "internalType": "uint64",
          "name": "maxSupply",
          "type": "uint64"
        }
      ],
      "stateMutability": "nonpayable",
      "type": "constructor"
    },
    {
      "inputs": [],
      "name": "ApprovalCallerNotOwnerNorApproved",
      "type": "error"
    },
    {
      "inputs": [],
      "name": "ApprovalQueryForNonexistentToken",
      "type": "error"
    },
    {
      "inputs": [],
      "name": "ApprovalToCurrentOwner",
      "type": "error"
    },
    {
      "inputs": [],
      "name": "ApproveToCaller",
      "type": "error"
    },
    {
      "inputs": [],
      "name": "BalanceQueryForZeroAddress",
      "type": "error"
    },
    {
      "inputs": [],
      "name": "MintToZeroAddress",
      "type": "error"
    },
    {
      "inputs": [],
      "name": "MintZeroQuantity",
      "type": "error"
    },
    {
      "inputs": [],
      "name": "OwnerQueryForNonexistentToken",
      "type": "error"
    },
    {
      "inputs": [],
      "name": "TransferCallerNotOwnerNorApproved",
      "type": "error"
    },
    {
      "inputs": [],
      "name": "TransferFromIncorrectOwner",
      "type": "error"
    },
    {
      "inputs": [],
      "name": "TransferToNonERC721ReceiverImplementer",
      "type": "error"
    },
    {
      "inputs": [],
      "name": "TransferToZeroAddress",
      "type": "error"
    },
    {
      "inputs": [],
      "name": "URIQueryForNonexistentToken",
      "type": "error"
    },
    {
      "anonymous": false,
      "inputs": [
        {
          "indexed": true,
          "internalType": "address",
          "name": "owner",
          "type": "address"
        },
        {
          "indexed": true,
          "internalType": "address",
          "name": "approved",
          "type": "address"
        },
        {
          "indexed": true,
          "internalType": "uint256",
          "name": "tokenId",
          "type": "uint256"
        }
      ],
      "name": "Approval",
      "type": "event"
    },
    {
      "anonymous": false,
      "inputs": [
        {
          "indexed": true,
          "internalType": "address",
          "name": "owner",
          "type": "address"
        },
        {
          "indexed": true,
          "internalType": "address",
          "name": "operator",
          "type": "address"
        },
        {
          "indexed": false,
          "internalType": "bool",
          "name": "approved",
          "type": "bool"
        }
      ],
      "name": "ApprovalForAll",
      "type": "event"
    },
    {
      "anonymous": false,
      "inputs": [
        {
          "indexed": false,
          "internalType": "address",
          "name": "userAddress",
          "type": "address"
        },
        {
          "indexed": false,
          "internalType": "address payable",
          "name": "relayerAddress",
          "type": "address"
        },
        {
          "indexed": false,
          "internalType": "bytes",
          "name": "functionSignature",
          "type": "bytes"
        }
      ],
      "name": "MetaTransactionExecuted",
      "type": "event"
    },
    {
      "anonymous": false,
      "inputs": [
        {
          "indexed": true,
          "internalType": "address",
          "name": "previousOwner",
          "type": "address"
        },
        {
          "indexed": true,
          "internalType": "address",
          "name": "newOwner",
          "type": "address"
        }
      ],
      "name": "OwnershipTransferred",
      "type": "event"
    },
    {
      "anonymous": false,
      "inputs": [
        {
          "indexed": true,
          "internalType": "address",
          "name": "from",
          "type": "address"
        },
        {
          "indexed": true,
          "internalType": "address",
          "name": "to",
          "type": "address"
        },
        {
          "indexed": true,
          "internalType": "uint256",
          "name": "tokenId",
          "type": "uint256"
        }
      ],
      "name": "Transfer",
      "type": "event"
    },
    {
      "inputs": [],
      "name": "ERC712_VERSION",
      "outputs": [
        {
          "internalType": "string",
          "name": "",
          "type": "string"
        }
      ],
      "stateMutability": "view",
      "type": "function"
    },
    {
      "inputs": [],
      "name": "MAX_PER_AIRDROP_ADDRESS",
      "outputs": [
        {
          "internalType": "uint16",
          "name": "",
          "type": "uint16"
        }
      ],
      "stateMutability": "view",
      "type": "function"
    },
    {
      "inputs": [],
      "name": "MAX_PER_PRESALE_ADDRESS",
      "outputs": [
        {
          "internalType": "uint16",
          "name": "",
          "type": "uint16"
        }
      ],
      "stateMutability": "view",
      "type": "function"
    },
    {
      "inputs": [],
      "name": "MAX_PER_PUBLICSALE_ADDRESS",
      "outputs": [
        {
          "internalType": "uint16",
          "name": "",
          "type": "uint16"
        }
      ],
      "stateMutability": "view",
      "type": "function"
    },
    {
      "inputs": [],
      "name": "MAX_PER_TEAM_ADDRESS",
      "outputs": [
        {
          "internalType": "uint16",
          "name": "",
          "type": "uint16"
        }
      ],
      "stateMutability": "view",
      "type": "function"
    },
    {
      "inputs": [],
      "name": "MAX_SUPPLY",
      "outputs": [
        {
          "internalType": "uint64",
          "name": "",
          "type": "uint64"
        }
      ],
      "stateMutability": "view",
      "type": "function"
    },
    {
      "inputs": [
        {
          "internalType": "address",
          "name": "",
          "type": "address"
        }
      ],
      "name": "airdropCounter",
      "outputs": [
        {
          "internalType": "uint64",
          "name": "",
          "type": "uint64"
        }
      ],
      "stateMutability": "view",
      "type": "function"
    },
    {
      "inputs": [],
      "name": "airdropMerkleRoot",
      "outputs": [
        {
          "internalType": "bytes32",
          "name": "",
          "type": "bytes32"
        }
      ],
      "stateMutability": "view",
      "type": "function"
    },
    {
      "inputs": [
        {
          "internalType": "address",
          "name": "to",
          "type": "address"
        },
        {
          "internalType": "uint256",
          "name": "tokenId",
          "type": "uint256"
        }
      ],
      "name": "approve",
      "outputs": [],
      "stateMutability": "nonpayable",
      "type": "function"
    },
    {
      "inputs": [
        {
          "internalType": "address",
          "name": "owner",
          "type": "address"
        }
      ],
      "name": "balanceOf",
      "outputs": [
        {
          "internalType": "uint256",
          "name": "",
          "type": "uint256"
        }
      ],
      "stateMutability": "view",
      "type": "function"
    },
    {
      "inputs": [],
      "name": "baseTokenURI",
      "outputs": [
        {
          "internalType": "string",
          "name": "",
          "type": "string"
        }
      ],
      "stateMutability": "view",
      "type": "function"
    },
    {
      "inputs": [],
      "name": "baseURI",
      "outputs": [
        {
          "internalType": "string",
          "name": "",
          "type": "string"
        }
      ],
      "stateMutability": "view",
      "type": "function"
    },
    {
      "inputs": [
        {
          "internalType": "address[]",
          "name": "payees_",
          "type": "address[]"
        },
        {
          "internalType": "uint256[]",
          "name": "amounts_",
          "type": "uint256[]"
        }
      ],
      "name": "disbursePayments",
      "outputs": [],
      "stateMutability": "nonpayable",
      "type": "function"
    },
    {
      "inputs": [
        {
          "internalType": "address",
          "name": "userAddress",
          "type": "address"
        },
        {
          "internalType": "bytes",
          "name": "functionSignature",
          "type": "bytes"
        },
        {
          "internalType": "bytes32",
          "name": "sigR",
          "type": "bytes32"
        },
        {
          "internalType": "bytes32",
          "name": "sigS",
          "type": "bytes32"
        },
        {
          "internalType": "uint8",
          "name": "sigV",
          "type": "uint8"
        }
      ],
      "name": "executeMetaTransaction",
      "outputs": [
        {
          "internalType": "bytes",
          "name": "",
          "type": "bytes"
        }
      ],
      "stateMutability": "payable",
      "type": "function"
    },
    {
      "inputs": [],
      "name": "freezeMetadata",
      "outputs": [],
      "stateMutability": "nonpayable",
      "type": "function"
    },
    {
      "inputs": [],
      "name": "freezeSettings",
      "outputs": [],
      "stateMutability": "nonpayable",
      "type": "function"
    },
    {
      "inputs": [
        {
          "internalType": "uint256",
          "name": "tokenId",
          "type": "uint256"
        }
      ],
      "name": "getApproved",
      "outputs": [
        {
          "internalType": "address",
          "name": "",
          "type": "address"
        }
      ],
      "stateMutability": "view",
      "type": "function"
    },
    {
      "inputs": [],
      "name": "getChainId",
      "outputs": [
        {
          "internalType": "uint256",
          "name": "",
          "type": "uint256"
        }
      ],
      "stateMutability": "view",
      "type": "function"
    },
    {
      "inputs": [],
      "name": "getDomainSeperator",
      "outputs": [
        {
          "internalType": "bytes32",
          "name": "",
          "type": "bytes32"
        }
      ],
      "stateMutability": "view",
      "type": "function"
    },
    {
      "inputs": [
        {
          "internalType": "address",
          "name": "user",
          "type": "address"
        }
      ],
      "name": "getNonce",
      "outputs": [
        {
          "internalType": "uint256",
          "name": "nonce",
          "type": "uint256"
        }
      ],
      "stateMutability": "view",
      "type": "function"
    },
    {
      "inputs": [
        {
          "internalType": "address",
          "name": "owner",
          "type": "address"
        },
        {
          "internalType": "address",
          "name": "operator",
          "type": "address"
        }
      ],
      "name": "isApprovedForAll",
      "outputs": [
        {
          "internalType": "bool",
          "name": "",
          "type": "bool"
        }
      ],
      "stateMutability": "view",
      "type": "function"
    },
    {
      "inputs": [],
      "name": "metadataIsFrozen",
      "outputs": [
        {
          "internalType": "bool",
          "name": "",
          "type": "bool"
        }
      ],
      "stateMutability": "view",
      "type": "function"
    },
    {
      "inputs": [
        {
          "internalType": "bytes32[]",
          "name": "_merkleProof",
          "type": "bytes32[]"
        },
        {
          "internalType": "uint64",
          "name": "count",
          "type": "uint64"
        }
      ],
      "name": "mintAirdrop",
      "outputs": [],
      "stateMutability": "nonpayable",
      "type": "function"
    },
    {
      "inputs": [
        {
          "internalType": "bytes32[]",
          "name": "_merkleProof",
          "type": "bytes32[]"
        },
        {
          "internalType": "uint64",
          "name": "count",
          "type": "uint64"
        }
      ],
      "name": "mintPresale",
      "outputs": [],
      "stateMutability": "nonpayable",
      "type": "function"
    },
    {
      "inputs": [],
      "name": "mintPrice",
      "outputs": [
        {
          "internalType": "uint256",
          "name": "",
          "type": "uint256"
        }
      ],
      "stateMutability": "view",
      "type": "function"
    },
    {
      "inputs": [
        {
          "internalType": "address",
          "name": "_to",
          "type": "address"
        },
        {
          "internalType": "uint64",
          "name": "count",
          "type": "uint64"
        }
      ],
      "name": "mintTo",
      "outputs": [],
      "stateMutability": "payable",
      "type": "function"
    },
    {
      "inputs": [
        {
          "internalType": "bytes32[]",
          "name": "_merkleProof",
          "type": "bytes32[]"
        },
        {
          "internalType": "uint64",
          "name": "count",
          "type": "uint64"
        }
      ],
      "name": "mintToTeam",
      "outputs": [],
      "stateMutability": "nonpayable",
      "type": "function"
    },
    {
      "inputs": [],
      "name": "name",
      "outputs": [
        {
          "internalType": "string",
          "name": "",
          "type": "string"
        }
      ],
      "stateMutability": "view",
      "type": "function"
    },
    {
      "inputs": [],
      "name": "owner",
      "outputs": [
        {
          "internalType": "address",
          "name": "",
          "type": "address"
        }
      ],
      "stateMutability": "view",
      "type": "function"
    },
    {
      "inputs": [
        {
          "internalType": "uint256",
          "name": "tokenId",
          "type": "uint256"
        }
      ],
      "name": "ownerOf",
      "outputs": [
        {
          "internalType": "address",
          "name": "",
          "type": "address"
        }
      ],
      "stateMutability": "view",
      "type": "function"
    },
    {
      "inputs": [],
      "name": "phase",
      "outputs": [
        {
          "internalType": "enum FFWClubNFT.SalePhase",
          "name": "",
          "type": "uint8"
        }
      ],
      "stateMutability": "view",
      "type": "function"
    },
    {
      "inputs": [
        {
          "internalType": "address",
          "name": "",
          "type": "address"
        }
      ],
      "name": "presaleCounter",
      "outputs": [
        {
          "internalType": "uint64",
          "name": "",
          "type": "uint64"
        }
      ],
      "stateMutability": "view",
      "type": "function"
    },
    {
      "inputs": [
        {
          "internalType": "address",
          "name": "",
          "type": "address"
        }
      ],
      "name": "publicsaleCounter",
      "outputs": [
        {
          "internalType": "uint64",
          "name": "",
          "type": "uint64"
        }
      ],
      "stateMutability": "view",
      "type": "function"
    },
    {
      "inputs": [],
      "name": "renounceOwnership",
      "outputs": [],
      "stateMutability": "nonpayable",
      "type": "function"
    },
    {
      "inputs": [
        {
          "internalType": "address",
          "name": "from",
          "type": "address"
        },
        {
          "internalType": "address",
          "name": "to",
          "type": "address"
        },
        {
          "internalType": "uint256",
          "name": "tokenId",
          "type": "uint256"
        }
      ],
      "name": "safeTransferFrom",
      "outputs": [],
      "stateMutability": "nonpayable",
      "type": "function"
    },
    {
      "inputs": [
        {
          "internalType": "address",
          "name": "from",
          "type": "address"
        },
        {
          "internalType": "address",
          "name": "to",
          "type": "address"
        },
        {
          "internalType": "uint256",
          "name": "tokenId",
          "type": "uint256"
        },
        {
          "internalType": "bytes",
          "name": "_data",
          "type": "bytes"
        }
      ],
      "name": "safeTransferFrom",
      "outputs": [],
      "stateMutability": "nonpayable",
      "type": "function"
    },
    {
      "inputs": [
        {
          "internalType": "bytes32",
          "name": "_root",
          "type": "bytes32"
        }
      ],
      "name": "setAirdropMerkleRoot",
      "outputs": [],
      "stateMutability": "nonpayable",
      "type": "function"
    },
    {
      "inputs": [
        {
          "internalType": "address",
          "name": "operator",
          "type": "address"
        },
        {
          "internalType": "bool",
          "name": "approved",
          "type": "bool"
        }
      ],
      "name": "setApprovalForAll",
      "outputs": [],
      "stateMutability": "nonpayable",
      "type": "function"
    },
    {
      "inputs": [
        {
          "internalType": "string",
          "name": "_baseURI",
          "type": "string"
        }
      ],
      "name": "setBaseURI",
      "outputs": [],
      "stateMutability": "nonpayable",
      "type": "function"
    },
    {
      "inputs": [
        {
          "internalType": "uint16",
          "name": "teamLimit",
          "type": "uint16"
        },
        {
          "internalType": "uint16",
          "name": "airdropLimit",
          "type": "uint16"
        },
        {
          "internalType": "uint16",
          "name": "preSaleLimit",
          "type": "uint16"
        },
        {
          "internalType": "uint16",
          "name": "publicSaleLimit",
          "type": "uint16"
        },
        {
          "internalType": "uint64",
          "name": "totalTeamReserve",
          "type": "uint64"
        },
        {
          "internalType": "uint64",
          "name": "totalAirdropReserve",
          "type": "uint64"
        },
        {
          "internalType": "uint64",
          "name": "totalPresaleReserve",
          "type": "uint64"
        }
      ],
      "name": "setLimits",
      "outputs": [],
      "stateMutability": "nonpayable",
      "type": "function"
    },
    {
      "inputs": [
        {
          "internalType": "bytes32",
          "name": "_teamRoot",
          "type": "bytes32"
        },
        {
          "internalType": "bytes32",
          "name": "_airdropRoot",
          "type": "bytes32"
        },
        {
          "internalType": "bytes32",
          "name": "_whitelistRoot",
          "type": "bytes32"
        }
      ],
      "name": "setMerkleRoots",
      "outputs": [],
      "stateMutability": "nonpayable",
      "type": "function"
    },
    {
      "inputs": [
        {
          "internalType": "uint256",
          "name": "_mintPrice",
          "type": "uint256"
        }
      ],
      "name": "setMintPrice",
      "outputs": [],
      "stateMutability": "nonpayable",
      "type": "function"
    },
    {
      "inputs": [
        {
          "internalType": "enum FFWClubNFT.SalePhase",
          "name": "_phase",
          "type": "uint8"
        }
      ],
      "name": "setPhase",
      "outputs": [],
      "stateMutability": "nonpayable",
      "type": "function"
    },
    {
      "inputs": [
        {
          "internalType": "bytes32",
          "name": "_root",
          "type": "bytes32"
        }
      ],
      "name": "setTeamMerkleRoot",
      "outputs": [],
      "stateMutability": "nonpayable",
      "type": "function"
    },
    {
      "inputs": [
        {
          "internalType": "bytes32",
          "name": "_root",
          "type": "bytes32"
        }
      ],
      "name": "setWhitelistMerkleRoot",
      "outputs": [],
      "stateMutability": "nonpayable",
      "type": "function"
    },
    {
      "inputs": [],
      "name": "settingsIsFrezen",
      "outputs": [
        {
          "internalType": "bool",
          "name": "",
          "type": "bool"
        }
      ],
      "stateMutability": "view",
      "type": "function"
    },
    {
      "inputs": [
        {
          "internalType": "bytes4",
          "name": "interfaceId",
          "type": "bytes4"
        }
      ],
      "name": "supportsInterface",
      "outputs": [
        {
          "internalType": "bool",
          "name": "",
          "type": "bool"
        }
      ],
      "stateMutability": "view",
      "type": "function"
    },
    {
      "inputs": [],
      "name": "symbol",
      "outputs": [
        {
          "internalType": "string",
          "name": "",
          "type": "string"
        }
      ],
      "stateMutability": "view",
      "type": "function"
    },
    {
      "inputs": [
        {
          "internalType": "address",
          "name": "",
          "type": "address"
        }
      ],
      "name": "teamCounter",
      "outputs": [
        {
          "internalType": "uint64",
          "name": "",
          "type": "uint64"
        }
      ],
      "stateMutability": "view",
      "type": "function"
    },
    {
      "inputs": [],
      "name": "teamMerkleRoot",
      "outputs": [
        {
          "internalType": "bytes32",
          "name": "",
          "type": "bytes32"
        }
      ],
      "stateMutability": "view",
      "type": "function"
    },
    {
      "inputs": [
        {
          "internalType": "uint256",
          "name": "tokenId",
          "type": "uint256"
        }
      ],
      "name": "tokenURI",
      "outputs": [
        {
          "internalType": "string",
          "name": "",
          "type": "string"
        }
      ],
      "stateMutability": "view",
      "type": "function"
    },
    {
      "inputs": [],
      "name": "totalSupply",
      "outputs": [
        {
          "internalType": "uint256",
          "name": "",
          "type": "uint256"
        }
      ],
      "stateMutability": "view",
      "type": "function"
    },
    {
      "inputs": [
        {
          "internalType": "address",
          "name": "from",
          "type": "address"
        },
        {
          "internalType": "address",
          "name": "to",
          "type": "address"
        },
        {
          "internalType": "uint256",
          "name": "tokenId",
          "type": "uint256"
        }
      ],
      "name": "transferFrom",
      "outputs": [],
      "stateMutability": "nonpayable",
      "type": "function"
    },
    {
      "inputs": [
        {
          "internalType": "address",
          "name": "newOwner",
          "type": "address"
        }
      ],
      "name": "transferOwnership",
      "outputs": [],
      "stateMutability": "nonpayable",
      "type": "function"
    },
    {
      "inputs": [],
      "name": "whitelistMerkleRoot",
      "outputs": [
        {
          "internalType": "bytes32",
          "name": "",
          "type": "bytes32"
        }
      ],
      "stateMutability": "view",
      "type": "function"
    }
  ],
  "bytecode": "0x6008805460ff19169055601680546001600160c01b0316601960c31b179055601780547701f400640014001400000000000007d000000000000000c86001600160c81b0319909116179055601880546001600160401b0319166127101790556658d15e1762800060195560a06040819052600060808190526200008591601a91620003a9565b50601b805461ffff191690553480156200009e57600080fd5b5060405162003b4238038062003b42833981016040819052620000c1916200044f565b6040518060400160405280601781526020017f467572727920466f7820576f6f647369646520436c75620000000000000000008152506040518060400160405280600781526020016623232ba1b63ab160c91b815250838282816002908051906020019062000132929190620003a9565b50805162000148906003906020840190620003a9565b50506000805550620001636200015d620001cd565b620001e9565b600e80546001600160a01b0319166001600160a01b03831617905562000196600d6200023b602090811b62001e3c17901c565b620001a18362000244565b5050601880546001600160401b0319166001600160401b03939093169290921790915550620004de9050565b6000620001e4620002a860201b62001e451760201c565b905090565b600b80546001600160a01b038381166001600160a01b0319831681179093556040519116919082907f8be0079c531659141344cd1fd0a4f28419497f9722a3daafe3b4186f6b6457e090600090a35050565b80546001019055565b60085460ff16156200028d5760405162461bcd60e51b815260206004820152600e60248201526d185b1c9958591e481a5b9a5d195960921b604482015260640160405180910390fd5b620002988162000307565b506008805460ff19166001179055565b6000333014156200030157600080368080601f0160208091040260200160405190810160405280939291908181526020018383808284376000920191909152505050503601516001600160a01b03169150620003049050565b50335b90565b6040518060800160405280604f815260200162003af3604f9139805160209182012082519282019290922060408051808201825260018152603160f81b90840152805180840194909452838101919091527fc89efdaa54c0f20c7adf612882df0950f5a951637e0307cdcb4c672f298b8bc660608401523060808401524660a0808501919091528151808503909101815260c090930190528151910120600955565b828054620003b790620004a1565b90600052602060002090601f016020900481019282620003db576000855562000426565b82601f10620003f657805160ff191683800117855562000426565b8280016001018555821562000426579182015b828111156200042657825182559160200191906001019062000409565b506200043492915062000438565b5090565b5b8082111562000434576000815560010162000439565b6000806040838503121562000462578182fd5b82516001600160a01b038116811462000479578283fd5b60208401519092506001600160401b038116811462000496578182fd5b809150509250929050565b600181811c90821680620004b657607f821691505b60208210811415620004d857634e487b7160e01b600052602260045260246000fd5b50919050565b61360580620004ee6000396000f3fe60806040526004361061034f5760003560e01c8063724ff8ba116101c6578063bdcba9ef116100f7578063d8e896ee11610095578063f2fde38b1161006f578063f2fde38b146109fd578063f4a0a52814610a1d578063f80fe34514610a3d578063fb4bcd4f14610a5f57600080fd5b8063d8e896ee1461099b578063dc47dced146109bd578063e985e9c5146109dd57600080fd5b8063c87b56dd116100d1578063c87b56dd14610937578063cf880fea14610957578063d111515d14610971578063d547cfb71461098657600080fd5b8063bdcba9ef146108c1578063c03afb59146108f7578063c4d083111461091757600080fd5b8063a22cb46511610164578063aced876d1161013e578063aced876d14610833578063b1c9fe6e14610853578063b88d4fde14610881578063bd32fb66146108a157600080fd5b8063a22cb465146107e7578063a5ce30d214610807578063aa98e0c61461081d57600080fd5b806382a19411116101a057806382a194111461076b5780638da5cb5b146107a157806393d756aa146107bf57806395d89b41146107d257600080fd5b8063724ff8ba146106f557806377fc393e1461072b5780638087577a1461074b57600080fd5b80632fc2e838116102a0578063601258d81161023e5780636817c76c116102185780636817c76c146106955780636c0360eb146106ab57806370a08231146106c0578063715018a6146106e057600080fd5b8063601258d81461061d5780636352211e146106535780636588717e1461067357600080fd5b80633ea98bf91161027a5780633ea98bf9146105a957806342842e0e146105c857806355f804b3146105e85780635a22599d1461060857600080fd5b80632fc2e8381461052957806332cb6b0c1461055e5780633408e4701461059657600080fd5b80630c53c51c1161030d57806320379ee5116102e757806320379ee5146104a857806323b872dd146104bd57806329140819146104dd5780632d0335ab146104f357600080fd5b80630c53c51c146104455780630f7e59701461045857806318160ddd1461048557600080fd5b8062f9ae541461035457806301ffc9a714610376578063046181e2146103ab57806306fdde03146103cb578063081812fc146103ed578063095ea7b314610425575b600080fd5b34801561036057600080fd5b5061037461036f3660046130ba565b610a7f565b005b34801561038257600080fd5b506103966103913660046130e5565b610af1565b60405190151581526020015b60405180910390f35b3480156103b757600080fd5b506103746103c6366004612ffe565b610b43565b3480156103d757600080fd5b506103e0610b54565b6040516103a29190613342565b3480156103f957600080fd5b5061040d6104083660046130a2565b610be6565b6040516001600160a01b0390911681526020016103a2565b34801561043157600080fd5b50610374610440366004612edd565b610c2a565b6103e0610453366004612e63565b610cc5565b34801561046457600080fd5b506103e0604051806040016040528060018152602001603160f81b81525081565b34801561049157600080fd5b50600154600054035b6040519081526020016103a2565b3480156104b457600080fd5b5060095461049a565b3480156104c957600080fd5b506103746104d8366004612d89565b610eaf565b3480156104e957600080fd5b5061049a60115481565b3480156104ff57600080fd5b5061049a61050e366004612d35565b6001600160a01b03166000908152600a602052604090205490565b34801561053557600080fd5b5060175461054b90600160901b900461ffff1681565b60405161ffff90911681526020016103a2565b34801561056a57600080fd5b5060185461057e906001600160401b031681565b6040516001600160401b0390911681526020016103a2565b3480156105a257600080fd5b504661049a565b3480156105b557600080fd5b50601b5461039690610100900460ff1681565b3480156105d457600080fd5b506103746105e3366004612d89565b610eba565b3480156105f457600080fd5b50610374610603366004613158565b610ed5565b34801561061457600080fd5b50610374610f84565b34801561062957600080fd5b5061057e610638366004612d35565b6015602052600090815260409020546001600160401b031681565b34801561065f57600080fd5b5061040d61066e3660046130a2565b611036565b34801561067f57600080fd5b5060175461054b90600160b01b900461ffff1681565b3480156106a157600080fd5b5061049a60195481565b3480156106b757600080fd5b506103e0611048565b3480156106cc57600080fd5b5061049a6106db366004612d35565b6110d6565b3480156106ec57600080fd5b50610374611124565b34801561070157600080fd5b5061057e610710366004612d35565b6012602052600090815260409020546001600160401b031681565b34801561073757600080fd5b50610374610746366004612f3c565b611179565b34801561075757600080fd5b5061037461076636600461319d565b611294565b34801561077757600080fd5b5061057e610786366004612d35565b6013602052600090815260409020546001600160401b031681565b3480156107ad57600080fd5b50600b546001600160a01b031661040d565b6103746107cd366004612f08565b6113de565b3480156107de57600080fd5b506103e06115ee565b3480156107f357600080fd5b50610374610802366004612e32565b6115fd565b34801561081357600080fd5b5061049a60105481565b34801561082957600080fd5b5061049a600f5481565b34801561083f57600080fd5b5061037461084e366004612ffe565b6116d0565b34801561085f57600080fd5b5060175461087490600160c01b900460ff1681565b6040516103a29190613355565b34801561088d57600080fd5b5061037461089c366004612dc9565b6118bc565b3480156108ad57600080fd5b506103746108bc3660046130a2565b61190d565b3480156108cd57600080fd5b5061057e6108dc366004612d35565b6014602052600090815260409020546001600160401b031681565b34801561090357600080fd5b50610374610912366004613139565b61195b565b34801561092357600080fd5b50610374610932366004612ffe565b611a7e565b34801561094357600080fd5b506103e06109523660046130a2565b611a8b565b34801561096357600080fd5b50601b546103969060ff1681565b34801561097d57600080fd5b50610374611b10565b34801561099257600080fd5b506103e0611bbb565b3480156109a757600080fd5b5060175461054b90600160801b900461ffff1681565b3480156109c957600080fd5b506103746109d83660046130a2565b611bc8565b3480156109e957600080fd5b506103966109f8366004612d51565b611c16565b348015610a0957600080fd5b50610374610a18366004612d35565b611ce6565b348015610a2957600080fd5b50610374610a383660046130a2565b611da0565b348015610a4957600080fd5b5060175461054b90600160a01b900461ffff1681565b348015610a6b57600080fd5b50610374610a7a3660046130a2565b611dee565b610a87611ea2565b6001600160a01b0316610aa2600b546001600160a01b031690565b6001600160a01b031614610ad15760405162461bcd60e51b8152600401610ac89061337d565b60405180910390fd5b610ada83611bc8565b610ae382611dee565b610aec8161190d565b505050565b60006001600160e01b031982166380ac58cd60e01b1480610b2257506001600160e01b03198216635b5e139f60e01b145b80610b3d57506301ffc9a760e01b6001600160e01b03198316145b92915050565b610b506010548383611eb1565b5050565b606060028054610b63906134b5565b80601f0160208091040260200160405190810160405280929190818152602001828054610b8f906134b5565b8015610bdc5780601f10610bb157610100808354040283529160200191610bdc565b820191906000526020600020905b815481529060010190602001808311610bbf57829003601f168201915b5050505050905090565b6000610bf182611f10565b610c0e576040516333d1c03960e21b815260040160405180910390fd5b506000908152600660205260409020546001600160a01b031690565b6000610c3582611036565b9050806001600160a01b0316836001600160a01b03161415610c6a5760405163250fdee360e21b815260040160405180910390fd5b806001600160a01b0316610c7c611ea2565b6001600160a01b031614158015610c9c5750610c9a816109f8611ea2565b155b15610cba576040516367d9dca160e11b815260040160405180910390fd5b610aec838383611f3b565b60408051606081810183526001600160a01b0388166000818152600a602090815290859020548452830152918101869052610d038782878787611f97565b610d595760405162461bcd60e51b815260206004820152602160248201527f5369676e657220616e64207369676e617475726520646f206e6f74206d6174636044820152600d60fb1b6064820152608401610ac8565b6001600160a01b0387166000908152600a6020526040902054610d7d906001612087565b6001600160a01b0388166000908152600a60205260409081902091909155517f5845892132946850460bff5a0083f71031bc5bf9aadcd40f1de79423eac9b10b90610dcd90899033908a906132d0565b60405180910390a1600080306001600160a01b0316888a604051602001610df592919061326a565b60408051601f1981840301815290829052610e0f9161324e565b6000604051808303816000865af19150503d8060008114610e4c576040519150601f19603f3d011682016040523d82523d6000602084013e610e51565b606091505b509150915081610ea35760405162461bcd60e51b815260206004820152601c60248201527f46756e6374696f6e2063616c6c206e6f74207375636365737366756c000000006044820152606401610ac8565b98975050505050505050565b610aec838383612093565b610aec838383604051806020016040528060008152506118bc565b610edd611ea2565b6001600160a01b0316610ef8600b546001600160a01b031690565b6001600160a01b031614610f1e5760405162461bcd60e51b8152600401610ac89061337d565b601b5460ff1615610f715760405162461bcd60e51b815260206004820152601e60248201527f4d65746164617461206973207065726d616e656e746c792066726f7a656e00006044820152606401610ac8565b8051610b5090601a906020840190612b89565b610f8c611ea2565b6001600160a01b0316610fa7600b546001600160a01b031690565b6001600160a01b031614610fcd5760405162461bcd60e51b8152600401610ac89061337d565b601b54610100900460ff16156110255760405162461bcd60e51b815260206004820152601a60248201527f53657474696e677320697320616c72656164792066726f7a656e0000000000006044820152606401610ac8565b601b805461ff001916610100179055565b6000611041826122a3565b5192915050565b601a8054611055906134b5565b80601f0160208091040260200160405190810160405280929190818152602001828054611081906134b5565b80156110ce5780601f106110a3576101008083540402835291602001916110ce565b820191906000526020600020905b8154815290600101906020018083116110b157829003601f168201915b505050505081565b60006001600160a01b0382166110ff576040516323d3ad8160e21b815260040160405180910390fd5b506001600160a01b03166000908152600560205260409020546001600160401b031690565b61112c611ea2565b6001600160a01b0316611147600b546001600160a01b031690565b6001600160a01b03161461116d5760405162461bcd60e51b8152600401610ac89061337d565b61117760006123bd565b565b611181611ea2565b6001600160a01b031661119c600b546001600160a01b031690565b6001600160a01b0316146111c25760405162461bcd60e51b8152600401610ac89061337d565b805182511461121e5760405162461bcd60e51b815260206004820152602260248201527f50617965657320616e6420616d6f756e7473206c656e677468206d69736d61746044820152610c6d60f31b6064820152608401610ac8565b60005b8251811015610aec5761128283828151811061124d57634e487b7160e01b600052603260045260246000fd5b602002602001015183838151811061127557634e487b7160e01b600052603260045260246000fd5b602002602001015161240f565b8061128c816134f0565b915050611221565b61129c611ea2565b6001600160a01b03166112b7600b546001600160a01b031690565b6001600160a01b0316146112dd5760405162461bcd60e51b8152600401610ac89061337d565b601b54610100900460ff16156113355760405162461bcd60e51b815260206004820152601f60248201527f53657474696e677320617265207065726d616e656e746c792066726f7a656e006044820152606401610ac8565b60178054601680546001600160c01b0316600160c01b6001600160401b039788160217905592841663ffffffff60801b19909316600160801b61ffff998a160261ffff60901b191617600160901b978916979097029690961763ffffffff60a01b1916600160a01b9588169590950261ffff60b01b191694909417600160b01b9390961692909202949094176001600160801b03191617600160401b9190931602919091179055565b806001600160401b031634816019546113f79190613453565b11156114455760405162461bcd60e51b815260206004820152601f60248201527f45746865722076616c75652073656e74206973206e6f7420636f7272656374006044820152606401610ac8565b6002601754600160c01b900460ff16600281111561147357634e487b7160e01b600052602160045260246000fd5b146114d15760405162461bcd60e51b815260206004820152602860248201527f436f6e7472616374206973206e6f7420796574206f70656e20666f72207075626044820152676c69632073616c6560c01b6064820152608401610ac8565b601754600160b01b900461ffff1682601560006114ec611ea2565b6001600160a01b0316815260208101919091526040016000205461151991906001600160401b031661341d565b6001600160401b0316111561157f5760405162461bcd60e51b815260206004820152602660248201527f596f752061726520657863656564696e67206d6178206c696d697420706572206044820152651dd85b1b195d60d21b6064820152608401610ac8565b816015600061158c611ea2565b6001600160a01b031681526020810191909152604001600090812080549091906115c09084906001600160401b031661341d565b92506101000a8154816001600160401b0302191690836001600160401b03160217905550610aec83836124a5565b606060038054610b63906134b5565b611605611ea2565b6001600160a01b0316826001600160a01b031614156116375760405163b06307db60e01b815260040160405180910390fd5b8060076000611644611ea2565b6001600160a01b03908116825260208083019390935260409182016000908120918716808252919093529120805460ff191692151592909217909155611688611ea2565b6001600160a01b03167f17307eab39ab6107e8899845ad3d59bd9653f200f220920489ca2b5937696c31836040516116c4911515815260200190565b60405180910390a35050565b601754600160801b900461ffff1681601260006116eb611ea2565b6001600160a01b0316815260208101919091526040016000205461171891906001600160401b031661341d565b6001600160401b0316111561177f5760405162461bcd60e51b815260206004820152602760248201527f596f752061726520657863656564696e67206c696d697420706572207465616d6044820152661036b2b6b132b960c91b6064820152608401610ac8565b6016546001600160401b03600160c01b82048116916117a09184911661341d565b6001600160401b031611156118025760405162461bcd60e51b815260206004820152602260248201527f796f752061726520657863656564696e6720746f74616c207465616d206c696d6044820152611a5d60f21b6064820152608401610ac8565b806012600061180f611ea2565b6001600160a01b031681526020810191909152604001600090812080549091906118439084906001600160401b031661341d565b92506101000a8154816001600160401b0302191690836001600160401b0316021790555080601660008282829054906101000a90046001600160401b031661188b919061341d565b92506101000a8154816001600160401b0302191690836001600160401b03160217905550610b506011548383611eb1565b6118c7848484612093565b6001600160a01b0383163b151580156118e957506118e78484848461251d565b155b15611907576040516368d2bf6b60e11b815260040160405180910390fd5b50505050565b611915611ea2565b6001600160a01b0316611930600b546001600160a01b031690565b6001600160a01b0316146119565760405162461bcd60e51b8152600401610ac89061337d565b600f55565b611963611ea2565b6001600160a01b031661197e600b546001600160a01b031690565b6001600160a01b0316146119a45760405162461bcd60e51b8152600401610ac89061337d565b601754600160c01b900460ff1660028111156119d057634e487b7160e01b600052602160045260246000fd5b60ff168160028111156119f357634e487b7160e01b600052602160045260246000fd5b60ff1611611a435760405162461bcd60e51b815260206004820152601760248201527f63616e206f6e6c7920616476616e6365207068617365730000000000000000006044820152606401610ac8565b6017805482919060ff60c01b1916600160c01b836002811115611a7657634e487b7160e01b600052602160045260246000fd5b021790555050565b610b50600f548383611eb1565b6060611a9682611f10565b611ab357604051630a14c4b560e41b815260040160405180910390fd5b6000611abd61261a565b9050805160001415611ade5760405180602001604052806000815250611b09565b80611ae884612629565b604051602001611af99291906132a1565b6040516020818303038152906040525b9392505050565b611b18611ea2565b6001600160a01b0316611b33600b546001600160a01b031690565b6001600160a01b031614611b595760405162461bcd60e51b8152600401610ac89061337d565b601b5460ff1615611bac5760405162461bcd60e51b815260206004820152601a60248201527f4d6574616461746120697320616c72656164792066726f7a656e0000000000006044820152606401610ac8565b601b805460ff19166001179055565b600c8054611055906134b5565b611bd0611ea2565b6001600160a01b0316611beb600b546001600160a01b031690565b6001600160a01b031614611c115760405162461bcd60e51b8152600401610ac89061337d565b601155565b600e5460405163c455279160e01b81526001600160a01b03848116600483015260009281169190841690829063c45527919060240160206040518083038186803b158015611c6357600080fd5b505afa158015611c77573d6000803e3d6000fd5b505050506040513d601f19601f82011682018060405250810190611c9b919061311d565b6001600160a01b03161415611cb4576001915050610b3d565b6001600160a01b0380851660009081526007602090815260408083209387168352929052205460ff165b949350505050565b611cee611ea2565b6001600160a01b0316611d09600b546001600160a01b031690565b6001600160a01b031614611d2f5760405162461bcd60e51b8152600401610ac89061337d565b6001600160a01b038116611d945760405162461bcd60e51b815260206004820152602660248201527f4f776e61626c653a206e6577206f776e657220697320746865207a65726f206160448201526564647265737360d01b6064820152608401610ac8565b611d9d816123bd565b50565b611da8611ea2565b6001600160a01b0316611dc3600b546001600160a01b031690565b6001600160a01b031614611de95760405162461bcd60e51b8152600401610ac89061337d565b601955565b611df6611ea2565b6001600160a01b0316611e11600b546001600160a01b031690565b6001600160a01b031614611e375760405162461bcd60e51b8152600401610ac89061337d565b601055565b80546001019055565b600033301415611e9c57600080368080601f0160208091040260200160405190810160405280939291908181526020018383808284376000920191909152505050503601516001600160a01b03169150611e9f9050565b50335b90565b6000611eac611e45565b905090565b611eb9612742565b611ec383836127bd565b611eff5760405162461bcd60e51b815260206004820152600d60248201526c24b73b30b634b210383937b7b360991b6044820152606401610ac8565b610aec611f0a611ea2565b826124a5565b6000805482108015610b3d575050600090815260046020526040902054600160e01b900460ff161590565b60008281526006602052604080822080546001600160a01b0319166001600160a01b0387811691821790925591518593918516917f8c5be1e5ebec7d5bd14f71427d1e84f3dd0314c0f7b2291e5b200ac8c7c3b92591a4505050565b60006001600160a01b038616611ffd5760405162461bcd60e51b815260206004820152602560248201527f4e61746976654d6574615472616e73616374696f6e3a20494e56414c49445f5360448201526424a3a722a960d91b6064820152608401610ac8565b600161201061200b8761285b565b6128d8565b6040805160008152602081018083529290925260ff851690820152606081018690526080810185905260a0016020604051602081039080840390855afa15801561205e573d6000803e3d6000fd5b505050602060405103516001600160a01b0316866001600160a01b031614905095945050505050565b6000611b098284613405565b600061209e826122a3565b9050836001600160a01b031681600001516001600160a01b0316146120d55760405162a1148160e81b815260040160405180910390fd5b6000846001600160a01b03166120e9611ea2565b6001600160a01b031614806121055750612105856109f8611ea2565b806121305750612113611ea2565b6001600160a01b031661212584610be6565b6001600160a01b0316145b90508061215057604051632ce44b5f60e11b815260040160405180910390fd5b6001600160a01b03841661217757604051633a954ecd60e21b815260040160405180910390fd5b61218360008487611f3b565b6001600160a01b038581166000908152600560209081526040808320805467ffffffffffffffff198082166001600160401b0392831660001901831617909255898616808652838620805493841693831660019081018416949094179055898652600490945282852080546001600160e01b031916909417600160a01b4290921691909102178355870180845292208054919390911661225757600054821461225757805460208601516001600160401b0316600160a01b026001600160e01b03199091166001600160a01b038a16171781555b50505082846001600160a01b0316866001600160a01b03167fddf252ad1be2c89b69c2b068fc378daa952ba7f163c4a11628f55a4df523b3ef60405160405180910390a45b5050505050565b6040805160608101825260008082526020820181905291810191909152816000548110156123a457600081815260046020908152604091829020825160608101845290546001600160a01b0381168252600160a01b81046001600160401b031692820192909252600160e01b90910460ff161515918101829052906123a25780516001600160a01b031615612339579392505050565b5060001901600081815260046020908152604091829020825160608101845290546001600160a01b038116808352600160a01b82046001600160401b031693830193909352600160e01b900460ff161515928101929092521561239d579392505050565b612339565b505b604051636f96cda160e11b815260040160405180910390fd5b600b80546001600160a01b038381166001600160a01b0319831681179093556040519116919082907f8be0079c531659141344cd1fd0a4f28419497f9722a3daafe3b4186f6b6457e090600090a35050565b6000826001600160a01b03168260405160006040518083038185875af1925050503d806000811461245c576040519150601f19603f3d011682016040523d82523d6000602084013e612461565b606091505b5050905080610aec5760405162461bcd60e51b815260206004820152601060248201526f2a3930b739b332b9103330b4b632b21760811b6044820152606401610ac8565b6018546001600160401b039081169082166124bf60005490565b6124c99190613405565b111561250a5760405162461bcd60e51b815260206004820152601060248201526f537570706c7920657863656564696e6760801b6044820152606401610ac8565b610b5082826001600160401b0316612908565b6000836001600160a01b031663150b7a02612536611ea2565b8786866040518563ffffffff1660e01b81526004016125589493929190613305565b602060405180830381600087803b15801561257257600080fd5b505af19250505080156125a2575060408051601f3d908101601f1916820190925261259f91810190613101565b60015b6125fd573d8080156125d0576040519150601f19603f3d011682016040523d82523d6000602084013e6125d5565b606091505b5080516125f5576040516368d2bf6b60e11b815260040160405180910390fd5b805181602001fd5b6001600160e01b031916630a85bd0160e11b149050949350505050565b6060601a8054610b63906134b5565b60608161264d5750506040805180820190915260018152600360fc1b602082015290565b8160005b81156126775780612661816134f0565b91506126709050600a8361343f565b9150612651565b6000816001600160401b0381111561269f57634e487b7160e01b600052604160045260246000fd5b6040519080825280601f01601f1916602001820160405280156126c9576020820181803683370190505b5090505b8415611cde576126de600183613472565b91506126eb600a8661350b565b6126f6906030613405565b60f81b81838151811061271957634e487b7160e01b600052603260045260246000fd5b60200101906001600160f81b031916908160001a90535061273b600a8661343f565b94506126cd565b6001601754600160c01b900460ff16600281111561277057634e487b7160e01b600052602160045260246000fd5b146111775760405162461bcd60e51b815260206004820152601d60248201527f436f6e7472616374206e6f7420696e2070726573616c652070686173650000006044820152606401610ac8565b6000806127c8611ea2565b6040516020016127f0919060609190911b6bffffffffffffffffffffffff1916815260140190565b604051602081830303815290604052805190602001209050612813838583612922565b6128515760405162461bcd60e51b815260206004820152600f60248201526e24b731b7b93932b1ba10383937b7b360891b6044820152606401610ac8565b5060019392505050565b600060405180608001604052806043815260200161358d60439139805160209182012083518483015160408087015180519086012090516128bb950193845260208401929092526001600160a01b03166040830152606082015260800190565b604051602081830303815290604052805190602001209050919050565b60006128e360095490565b60405161190160f01b60208201526022810191909152604281018390526062016128bb565b610b50828260405180602001604052806000815250612938565b60008261292f8584612945565b14949350505050565b610aec83838360016129c7565b600081815b84518110156129bf57600085828151811061297557634e487b7160e01b600052603260045260246000fd5b6020026020010151905080831161299b57600083815260208290526040902092506129ac565b600081815260208490526040902092505b50806129b7816134f0565b91505061294a565b509392505050565b6000546001600160a01b0385166129f057604051622e076360e81b815260040160405180910390fd5b83612a0e5760405163b562e8dd60e01b815260040160405180910390fd5b6001600160a01b038516600081815260056020908152604080832080546001600160801b031981166001600160401b038083168c018116918217600160401b67ffffffffffffffff1990941690921783900481168c01811690920217909155858452600490925290912080546001600160e01b031916909217600160a01b429092169190910217905580808501838015612ab157506001600160a01b0387163b15155b15612b3a575b60405182906001600160a01b038916906000907fddf252ad1be2c89b69c2b068fc378daa952ba7f163c4a11628f55a4df523b3ef908290a4612b02600088848060010195508861251d565b612b1f576040516368d2bf6b60e11b815260040160405180910390fd5b80821415612ab7578260005414612b3557600080fd5b612b80565b5b6040516001830192906001600160a01b038916906000907fddf252ad1be2c89b69c2b068fc378daa952ba7f163c4a11628f55a4df523b3ef908290a480821415612b3b575b5060005561229c565b828054612b95906134b5565b90600052602060002090601f016020900481019282612bb75760008555612bfd565b82601f10612bd057805160ff1916838001178555612bfd565b82800160010185558215612bfd579182015b82811115612bfd578251825591602001919060010190612be2565b50612c09929150612c0d565b5090565b5b80821115612c095760008155600101612c0e565b60006001600160401b03831115612c3b57612c3b61354b565b612c4e601f8401601f19166020016133b2565b9050828152838383011115612c6257600080fd5b828260208301376000602084830101529392505050565b600082601f830112612c89578081fd5b81356020612c9e612c99836133e2565b6133b2565b80838252828201915082860187848660051b8901011115612cbd578586fd5b855b85811015612cdb57813584529284019290840190600101612cbf565b5090979650505050505050565b600082601f830112612cf8578081fd5b611b0983833560208501612c22565b803561ffff81168114612d1957600080fd5b919050565b80356001600160401b0381168114612d1957600080fd5b600060208284031215612d46578081fd5b8135611b0981613561565b60008060408385031215612d63578081fd5b8235612d6e81613561565b91506020830135612d7e81613561565b809150509250929050565b600080600060608486031215612d9d578081fd5b8335612da881613561565b92506020840135612db881613561565b929592945050506040919091013590565b60008060008060808587031215612dde578081fd5b8435612de981613561565b93506020850135612df981613561565b92506040850135915060608501356001600160401b03811115612e1a578182fd5b612e2687828801612ce8565b91505092959194509250565b60008060408385031215612e44578182fd5b8235612e4f81613561565b915060208301358015158114612d7e578182fd5b600080600080600060a08688031215612e7a578283fd5b8535612e8581613561565b945060208601356001600160401b03811115612e9f578384fd5b612eab88828901612ce8565b9450506040860135925060608601359150608086013560ff81168114612ecf578182fd5b809150509295509295909350565b60008060408385031215612eef578182fd5b8235612efa81613561565b946020939093013593505050565b60008060408385031215612f1a578182fd5b8235612f2581613561565b9150612f3360208401612d1e565b90509250929050565b60008060408385031215612f4e578182fd5b82356001600160401b0380821115612f64578384fd5b818501915085601f830112612f77578384fd5b81356020612f87612c99836133e2565b8083825282820191508286018a848660051b8901011115612fa6578889fd5b8896505b84871015612fd1578035612fbd81613561565b835260019690960195918301918301612faa565b5096505086013592505080821115612fe7578283fd5b50612ff485828601612c79565b9150509250929050565b60008060408385031215613010578182fd5b82356001600160401b03811115613025578283fd5b8301601f81018513613035578283fd5b80356020613045612c99836133e2565b80838252828201915082850189848660051b8801011115613064578788fd5b8795505b84861015613086578035835260019590950194918301918301613068565b5095506130969050868201612d1e565b93505050509250929050565b6000602082840312156130b3578081fd5b5035919050565b6000806000606084860312156130ce578081fd5b505081359360208301359350604090920135919050565b6000602082840312156130f6578081fd5b8135611b0981613576565b600060208284031215613112578081fd5b8151611b0981613576565b60006020828403121561312e578081fd5b8151611b0981613561565b60006020828403121561314a578081fd5b813560038110611b09578182fd5b600060208284031215613169578081fd5b81356001600160401b0381111561317e578182fd5b8201601f8101841361318e578182fd5b611cde84823560208401612c22565b600080600080600080600060e0888a0312156131b7578485fd5b6131c088612d07565b96506131ce60208901612d07565b95506131dc60408901612d07565b94506131ea60608901612d07565b93506131f860808901612d1e565b925061320660a08901612d1e565b915061321460c08901612d1e565b905092959891949750929550565b6000815180845261323a816020860160208601613489565b601f01601f19169290920160200192915050565b60008251613260818460208701613489565b9190910192915050565b6000835161327c818460208801613489565b60609390931b6bffffffffffffffffffffffff19169190920190815260140192915050565b600083516132b3818460208801613489565b8351908301906132c7818360208801613489565b01949350505050565b6001600160a01b038481168252831660208201526060604082018190526000906132fc90830184613222565b95945050505050565b6001600160a01b038581168252841660208201526040810183905260806060820181905260009061333890830184613222565b9695505050505050565b602081526000611b096020830184613222565b602081016003831061337757634e487b7160e01b600052602160045260246000fd5b91905290565b6020808252818101527f4f776e61626c653a2063616c6c6572206973206e6f7420746865206f776e6572604082015260600190565b604051601f8201601f191681016001600160401b03811182821017156133da576133da61354b565b604052919050565b60006001600160401b038211156133fb576133fb61354b565b5060051b60200190565b600082198211156134185761341861351f565b500190565b60006001600160401b038083168185168083038211156132c7576132c761351f565b60008261344e5761344e613535565b500490565b600081600019048311821515161561346d5761346d61351f565b500290565b6000828210156134845761348461351f565b500390565b60005b838110156134a457818101518382015260200161348c565b838111156119075750506000910152565b600181811c908216806134c957607f821691505b602082108114156134ea57634e487b7160e01b600052602260045260246000fd5b50919050565b60006000198214156135045761350461351f565b5060010190565b60008261351a5761351a613535565b500690565b634e487b7160e01b600052601160045260246000fd5b634e487b7160e01b600052601260045260246000fd5b634e487b7160e01b600052604160045260246000fd5b6001600160a01b0381168114611d9d57600080fd5b6001600160e01b031981168114611d9d57600080fdfe4d6574615472616e73616374696f6e2875696e74323536206e6f6e63652c616464726573732066726f6d2c62797465732066756e6374696f6e5369676e617475726529a2646970667358221220e80d79ad854b48cf23029e85ccfc8db77ce99c049c743f9a30ac359e03df16a164736f6c63430008040033454950373132446f6d61696e28737472696e67206e616d652c737472696e672076657273696f6e2c6164647265737320766572696679696e67436f6e74726163742c627974657333322073616c7429",
  "linkReferences": {},
  "deployedLinkReferences": {}
}